:100000000C9436010C9453010C9453010C9453013D
:100010000C9453010C9453010C9453010C94530110
:100020000C9453010C9453010C9453010C94A804A8
:100030000C9453010C9453010C9453010C945301F0
:100040000C9453010C9453010C9453010C945301E0
:100050000C9453016E6574636F6E20546573746DF8
:100060006F64756C004B6F6E666572656E7A7A6947
:100070006D6D6572000200000000017549503A2064
:10008000006E6574646973636F766572006E657483
:1000900066696E64004552524F520D0A0045525235
:1000A0004F520D0A004F4B0D0A253032583A253079
:1000B00032583A253032583A253032583A253032C3
:1000C000583A253032580D0A004D4143004F4B0D30
:1000D0000A25730D0A004D4158004F4B0D0A257338
:1000E0000D0A004D494E004F4B0D0A25630D0A00C5
:1000F0004454595045004F4B0D0A25640D0A0054D5
:10010000595045004F4B0D0A25640D0A00444556D1
:10011000494345434F554E54004F4B0D0A25730D2F
:100120000A00504C414345004F4B0D0A25730D0A00
:10013000004E414D45004F4B0D0A256C750D0A00D0
:10014000555054494D45004F4B0D0A25730D0A007B
:1001500056414C55450047455400352E3000302E51
:100160003000352E3000302E30006E616E00696E2A
:10017000660000407A10F35A00A0724E1809001071
:10018000A5D4E80000E87648170000E40B5402000C
:1001900000CA9A3B000000E1F50500008096980037
:1001A000000040420F000000A08601000000102760
:1001B00000000000E80300000000640000000000F0
:1001C0000A00000000000100000000002C76D88822
:1001D000DC674F0823DFC1DFAE59E1B1B796E5E335
:1001E000E453C63AE651997696E8E6C28426EB894E
:1001F0008C9B62ED407C6FFCEFBC9C9F40F2BAA5EB
:100200006FA5F490055A2AF75C936B6CF9676DC182
:100210001BFCE0E40D47FEF520E6B500D0ED902E86
:100220000300943577050080841E080000204E0AE4
:10023000000000C80C333333330F986E1283114122
:10024000EF8D2114893BE65516CFFEE6DB18D184ED
:100250004B381BF77C1D901DA4BBE4242032847214
:100260005E228100C9F124ECA1E53D2711241FBEC7
:10027000CFE5D8E0DEBFCDBF10E0A0E6B0E0ECEC0B
:10028000FFE302C005900D92A437B107D9F714E03F
:10029000A4E7B0E001C01D92AB39B107E1F70E94BD
:1002A00099010C94E41F0C940000EF92FF920F93BD
:1002B0001F93562F442733272227E92EFF24002798
:1002C00011272E293F29402B512BE12CF12CAFEF88
:1002D0000A2F112DE622F72208231923EF2CF02EE6
:1002E000012F112707FD1A952E293F29402B512B4D
:1002F000607080709070982F872F762F6627262B3E
:10030000372B482B592BB901CA011F910F91FF9030
:10031000EF900895E0E6F8E020E030E004C092912C
:1003200082912827392784E0ED39F807C0F7C90101
:1003300008958F929F92AF92BF92CF92DF92EF92E9
:10034000FF920F931F93CF93DF930E94E6040E94C6
:10035000CF040E947E0C0E94D80B80EA90E065E7F3
:1003600070E046E050E00E94961E80EA90E00E9415
:100370007F030E94470D0E945F160E948A01BC0104
:1003800080E090E00E94B51D78940E94EF040E94E6
:10039000FF04EE24FF248701AA24BB2465016DE13C
:1003A000862E912C8DE092E068E572E00E942B048D
:1003B0009093580180935701009761F18091190241
:1003C00090911A028830910589F481E00E94780E9C
:1003D0008091570190915801009709F47BC00E94C9
:1003E0005D1760915701709158010FC026E0883069
:1003F000920709F06FC00E94AD166091570170918D
:1004000058016115710509F465C08DE092E00E9404
:10041000E20360C00E94D8046A197B098C099D0917
:10042000633371058105910508F454C00E94D80416
:100430005B016C01C0E0D0E0C89DC001C99D900D7A
:10044000D89D900D11248A599E4F909365018093F9
:10045000640182E00E94780E8091570190915801CA
:10046000009751F00E945D176091570170915801FB
:100470008DE092E00E94E2032196C530D105E1F6BD
:10048000C0E0D0E0CE01880F991F9E0143E0220F0B
:10049000331F4A95E1F7820F931F87599B4F909323
:1004A00061018093600185E00E94780E8091570180
:1004B00090915801009751F00E945D17609157018B
:1004C000709158018DE092E00E94E2032196C530C0
:1004D000D105C1F60E94D8046E197F09800B910BDB
:1004E000693E23E0720720E0820720E0920730F0A7
:1004F0000E94D8047B018C010E947B160E94090C8B
:1005000051CFC4980895C49A08950E9481028FEF34
:100510008FB9779BFECF0E94830208950F931F939C
:10052000CF93DF93EC018B010E9481028AE38FB9A4
:10053000779BFECF07C01FB8779BFECF8FB1899303
:100540000150104001151105B1F70E948302DF919F
:10055000CF911F910F9108950F931F93CF93DF9326
:10056000EC018B010E9481028AE78FB9779BFECF55
:1005700006C089918FB9779BFECF015010400115BD
:100580001105B9F70E948302DF91CF911F910F915E
:1005900008951F93DF93CF930F92CDB7DEB7182F37
:1005A00069830E94E5020E9481021F71106A1FB9CF
:1005B0006981779BFECF6FB9779BFECF0E94830244
:1005C0000F90CF91DF911F910895282F30E0A9015E
:1005D0004F7150704B315105BCF44091760050E0A2
:1005E000207630704217530779F08076809376003A
:1005F0008FE163E00E94C902609176006295669582
:1006000067708FE10E94050308951F93DF93CF93D6
:100610000F92CDB7DEB7182F69830E94E5020E94C2
:1006200081021F7110681FB96981779BFECF6FB976
:10063000779BFECF0E9483020F90CF91DF911F9195
:1006400008951F93DF93CF930F92CDB7DEB7182F86
:1006500069830E94E5020E9481021F7110641FB924
:100660006981779BFECF6FB9779BFECF0E94830293
:100670000F90CF91DF911F9108951F93DF93CF9338
:100680000F92CDB7DEB7182F0E94E5020E948102BB
:10069000812F8F718FB9779BFECF1FB8779BFECFCD
:1006A00017FF03C01FB8779BFECF8FB189830E94CD
:1006B000830289810F90CF91DF911F9108951F933D
:1006C000DF93CF930F92CDB7DEB7982F162F84ED1F
:1006D000692F79830E94210386ED612F0E942103F7
:1006E00087ED7981672F0E9421038AEE0E943D03E6
:1006F00080FDFBCF0F90CF91DF911F910895CF9395
:10070000DF93EC0187B3806B87BBBE98709A8DB185
:1007100080658DB90E9485028FE99FE00197F1F70E
:1007200000C0000088E060E00E94210389E060E0F2
:100730000E9421038AE06FEF0E9421038BE069E1B0
:100740000E94210380EC6DE00E94050381EC60E8CB
:100750000E94C90282EC63E30E9405038AEC6CE507
:100760000E9421038BEC62E00E94210384EC65E18E
:100770000E94210386EC62E10E94210384EE6881DD
:100780000E94210385EE69810E94210382EE6A8125
:100790000E94210383EE6B810E94210380EE6C8115
:1007A0000E94210381EE6D810E94210380E060E0C0
:1007B00071E00E945F038FE164E00E940503DF9116
:1007C000CF910895EF92FF920F931F93DF93CF93F2
:1007D0000F92CDB7DEB77C018B0119828FE10E94A9
:1007E0003D0383FDFBCF84E060E00E94210385E0B0
:1007F0006AE10E94210382E060E00E94210383E01D
:100800006AE10E942103CE01019661E070E00E943E
:10081000AC02C701B8010E94AC020050164E86E03F
:10082000602F0E94210387E0612F0E9421038CE149
:1008300068E00E94C9028BE168E00E9405038FE135
:1008400068E00E9405030F90CF91DF911F910F91F7
:10085000FF90EF900895AF92BF92CF92DF92EF9208
:10086000FF920F931F93DF93CF9300D000D000D05F
:10087000CDB7DEB75C016B0189E30E943D0388239D
:1008800009F452C0609174000091750080E00E94EC
:10089000210381E0602F0E942103CE01019666E0D2
:1008A00070E00E948E029A8180E0E980FF24E82AAD
:1008B000F92AF0927500E09274009C8180E00B812F
:1008C00010E0082B192B04501040C016D10608F474
:1008D0008601C501B8010E948E0288E00E943D0396
:1008E000C82E89E00E943D03382F20E08C2D90E037
:1008F000822B932BE816F90639F48CE06FEF0E94F7
:1009000021038DE069E109C00894E108F1088CE059
:100910006E2D0E9421038DE06F2D0E9421038EE138
:1009200060E40E94050302C000E010E0C8012696C2
:100930000FB6F894DEBF0FBECDBFCF91DF911F91F0
:100940000F91FF90EF90DF90CF90BF90AF90089500
:100950001F920F920FB60F9211248F939F93AF9314
:10096000BF938091770090917800A0917900B09129
:100970007A000196A11DB11D8093770090937800B5
:10098000A0937900B0937A0084E682BFBF91AF91C3
:100990009F918F910F900FBE0F901F90189584E636
:1009A00082BF83B7856083BF89B7816089BF08959F
:1009B0008FB7F894209177003091780040917900BA
:1009C00050917A008FBFB901CA01089588E18AB9B0
:1009D00010BC87E689B9599886E880BD08950E94C1
:1009E0005B090895E0916401F0916501848195812E
:1009F00023E5833C920711F40E94BD0B08950E94E9
:100A000019050E9416080895E0916001F0916101B6
:100A10008481958124E48030920729F020E5833C8D
:100A2000920731F403C00E94C70708950E942E095F
:100A30000895EF92FF920F931F93DF93CF9300D00F
:100A400000D0CDB7DEB78FEF9FEF9A8389839C8369
:100A50008B83CE01019660E073E40E94850D909334
:100A60007D0080937C0020E034E4FC013583248306
:100A70000E94B01D60938200709383008093840075
:100A8000909385000E94D8047B018C010E94B01DC8
:100A900028EC30E040E050E0E20EF31E041F151F8A
:100AA0002CE231E040E050E00E94171DE60EF71EF8
:100AB000081F191FE0928600F092870000938800BB
:100AC0001093890010927B000F900F900F900F9061
:100AD000CF91DF911F910F91FF90EF900895CF93E9
:100AE000DF93EC0181E08883898386E08A831B821F
:100AF0008091820090918300A0918400B091850044
:100B00008C839D83AE83BF830E94D80424E630E0AB
:100B100040E050E00E94F51CC9010E947A159987B7
:100B2000888780E890E09B878A871C861D861E86C2
:100B30001F86188A198A1A8A1B8A1C8A1D8A1E8A8D
:100B40001F8A188E198E1A8E1B8EDE015C96E0EAC3
:100B5000F0E086E001900D928150E1F7CE0182969F
:100B6000FC018AE0DF011D928A95E9F7CE018C969F
:100B7000FC0180E4DF011D928A95E9F7CE018459DA
:100B80009F4FFC0180E8DF011D928A95E9F7FE0185
:100B9000E451FF4F83E68083FE01E351FF4F92E86B
:100BA0009083FE01E251FF4F93E59083C151DF4FE7
:100BB0008883DF91CF910895FC0125E3219321E003
:100BC000DC0111962C93119761839F012E5F3F4F9B
:100BD000C9010895FC0127E3219322E0DC0111966D
:100BE0002C9311979F012F5F3F4F81E0818383E01A
:100BF000F90181832E5F3F4FC9010895FC0122E373
:100C0000219324E0DC0111962C93119720918E0002
:100C100030918F0040919000509191002183328358
:100C2000438354839C012A5F3F4FC9010895FC010F
:100C300026E3219324E0DC0111962C931197209157
:100C40008A0030918B0040918C0050918D0021835F
:100C50003283438354839C012A5F3F4FC901089527
:100C6000EF92FF920F931F93CF93DF938C01EC01D0
:100C70008CE089932196CE010E94BB1E7E01AC2F91
:100C8000BF2DFD0101900020E9F73197EA1BFB0B16
:100C9000D8011196EC931197CE0FD11DCE01DF91A3
:100CA000CF911F910F91FF90EF900895CF93DF9315
:100CB000C0916201D0916301CE010E946F05CE0107
:100CC00080519F4F61E00E94DC050E94EA0564E5C7
:100CD00070E00E943006FC018FEF819380916201E9
:100CE00090916301BF01681B790B0E947E1582E021
:100CF00080937B00DF91CF910895CF93DF93E091B4
:100D00006201F091630180818230E1F524813581B7
:100D1000468157818091820090918300A091840048
:100D2000B0918500281739074A075B0759F5EF018D
:100D3000C051DF4F80899189A289B38980938E0049
:100D400090938F00A0939000B0939100FE01819149
:100D50002981EF012196863369F481819281A381F3
:100D6000B48180938A0090938B00A0938C00B09301
:100D70008D0002C08F3F19F0C20FD11DE7CF83E075
:100D800080937B00DF91CF910895CF93DF93C09143
:100D90006201D0916301CE010E946F0580918A00AB
:100DA00090918B00A0918C00B0918D008C8B9D8BCD
:100DB000AE8BBF8BCE0180519F4F63E00E94DC055C
:100DC0000E94FE0564E570E00E9430060E9417064E
:100DD000FC018FEF81938091620190916301BF01CB
:100DE000681B790B0E947E1584E080937B00DF9165
:100DF000CF910895EF92FF920F931F93CF93DF93BC
:100E0000E0916201F09163018081823009F0B8C005
:100E100024813581468157818091820090918300A1
:100E2000A0918400B0918500281739074A075B0715
:100E300009F0A6C0DF01A051BF4F10E0CEE7D0E01F
:100E4000FD01819111960C9111977F010894E11C8D
:100E5000F11C8330B9F0843018F4813081F505C07D
:100E60008333E9F0853359F526C081819281A381CE
:100E7000B4818093960090939700A0939800B093CC
:100E800099001FC081819281A381B48180939200D7
:100E900090939300A0939400B093950012C0618149
:100EA0007281838194810E94550160937E007983D1
:100EB0008A839B8306C08181853019F45FC08F3F90
:100EC00021F0D701A00FB11DBBCF112309F458C0E9
:100ED00080918E0090918F0090930A028093090276
:100EE000809190009091910090930C0280930B025E
:100EF000809196009091970090930602809305024E
:100F00008091980090919900909308028093070235
:100F1000809192009091930090930202809301023D
:100F20008091940090919500909304028093030225
:100F30000E94D8047B018C0160917E0070917F003B
:100F4000809180009091810024E630E040E050E004
:100F50000E94D61C9695879577956795E60EF71EA5
:100F6000081F191FE0928600F09287000093880006
:100F70001093890085E080937B0002C011E0A1CF2F
:100F8000DF91CF911F910F91FF90EF900895809185
:100F90005F0181FF0CC080917B00823019F08430AA
:100FA00031F403C00E947D0602C00E94FA068091BF
:100FB0005F0183FF3AC080917B008130E1F0813096
:100FC00028F08330D9F0853081F51BC00E94D80409
:100FD0009B01AC018091860090918700A0918800D0
:100FE000B091890082179307A407B507F0F481E058
:100FF00080937B0008950E94560608950E94C506BE
:1010000008950E94D8049B01AC01809186009091C4
:101010008700A0918800B091890082179307A407E8
:10102000B50718F483E080937B000895DF93CF9396
:1010300000D000D0CDB7DEB78FEF9FEF9A838983C2
:101040009C838B83CE01019663EC71E50E94850D34
:1010500023EC30E5FC013583248310929A000F9035
:101060000F900F900F90CF91DF910895FC01DB015D
:101070008C918F3FC9F411969C9111979F3FA1F4D9
:1010800012969C9112979F3F79F413969C91139717
:101090009F3F51F414969C9114979F3F29F4159605
:1010A0009C9115979F3F21F19081981721F591818F
:1010B00011968C9111979817F1F4928112968C9158
:1010C00012979817C1F4938113968C9113979817E0
:1010D00091F4948114968C911497981761F421E0FF
:1010E00030E0958115968C911597981721F405C0DD
:1010F00021E030E002C020E030E0C9010895EF9225
:10110000FF920F931F93CF93DF9350916201409111
:10111000630180910B0290910C02209109023091A1
:101120000A02822B932B009799F1E52EE7017E01AD
:10113000F42EE701C7016DE870E00E94B21E00972F
:1011400039F58F81882321F5B701685F7F4F80EAE9
:1011500090E00E9436080097D9F00E94D8047B01E5
:101160008C010E94B01D28EC30E040E050E00E946D
:10117000171D6E0D7F1D801F911F60939B00709344
:101180009C0080939D0090939E0081E080939A0044
:10119000DF91CF911F910F91FF90EF900895DC01A7
:1011A00020E030E009C0FB01E20FF31FE491ED9372
:1011B0002F5F3F4FEE2349F0522F2417A0F305C0B5
:1011C000FC01E50FF11D10825F5F5417C8F308950D
:1011D000EF92FF920F931F93CF93DF930E94D80457
:1011E0000E9455017B018C01C0916201D091630185
:1011F000CE0161E870E00E94BB1E2B96DE01E0EAA2
:10120000F0E086E001900D928150E1F7FE01369604
:10121000EE82F18202831383CE010A9664E570E0C8
:1012200040E20E94CF08AA96CE0165E670E040E257
:101230000E94CF088091620190916301BE01605EBF
:101240007F4F681B790B0E947E1510929A00DF91E8
:10125000CF911F910F91FF90EF90089580915F01C2
:1012600083FF1EC080919A00813019F08230C1F452
:1012700015C00E94D8049B01AC0180919B00909105
:101280009C00A0919D00B0919E0082179307A40737
:10129000B50730F482E080939A0002C00E94E8080B
:1012A00080915F0181FF06C080919A00882311F42C
:1012B0000E947F08089583EC93E50E945E0E0895D6
:1012C0000F931F93DF93CF93CDB7DEB7A0970FB6E1
:1012D000F894DEBF0FBECDBFE0916201F0916301D3
:1012E0008091570190915801E80FF91F1082809169
:1012F00062019091630160E670E00E94CD1E66E598
:1013000071E00E949F1E009709F01CC280E090E0EF
:1013100060E670E00E94CD1E8C0160E571E00E94E5
:101320009F1E009769F580E090E060E670E00E9403
:10133000CD1EDC014C914053423008F003C200D076
:1013400000D000D0EDB7FEB7319680916201909148
:101350006301ADB7BEB712969C938E93119787E445
:1013600091E09383828350E022E330E0429FC0010A
:10137000439F900D529F900D11248D509F4F79C126
:10138000C80160E471E00E949F1E0097A1F50091E2
:101390006201109163010E94D8042DB73EB7285016
:1013A00030400FB6F8943EBF0FBE2DBFEDB7FEB76D
:1013B0003196ADB7BEB712961C930E93119726E3E4
:1013C00031E03383228364837583868397830E940D
:1013D000631F8091620190916301FC01DF010D9018
:1013E0000020E9F7BD01615070406E1B7F0BEDB727
:1013F000FEB73896A1C1C80161E371E00E949F1E4B
:101400000097D9F48E010F5F1F4FC80164E570E0AB
:101410000E94BB1E00D000D000D0EDB7FEB73196C1
:101420008091620190916301ADB7BEB712969C9313
:101430008E93119788E291E021C0C80162E271E0C9
:101440000E949F1E0097F9F48E010F5F1F4FC80185
:1014500065E670E00E94BB1E00D000D000D0EDB762
:10146000FEB731968091620190916301ADB7BEB72E
:1014700012969C938E93119789E191E093838283D6
:1014800015830483F8C0C8016DE071E00E949F1EBF
:101490000097B9F400D000D000D0EDB7FEB7319678
:1014A0008091620190916301ADB7BEB712969C9393
:1014B0008E93119784E091E09383828382E090E0A1
:1014C000D8C0C8016FEF70E00E949F1E009781F5A1
:1014D00080E090E060E670E00E94CD1EDC012C917F
:1014E0002053223008F02EC100D000D000D0EDB73C
:1014F000FEB731968091620190916301ADB7BEB79E
:1015000012969C938E93119786EF90E0938382833B
:1015100030E082E390E0289FD001299FB00D389FF2
:10152000B00D1124AD50BF4FD0968C91D09736C0DE
:10153000C80160EF70E00E949F1E009791F580E067
:1015400090E060E670E00E94CD1EDC012C912053FB
:10155000223008F0F7C000D000D000D0EDB7FEB7C1
:1015600031968091620190916301ADB7BEB712963A
:101570009C938E93119787EE90E09383828330E063
:1015800082E390E0289FD001299FB00D389FB00DD5
:101590001124AD50BF4FD1968C91D1978483158281
:1015A0006AC0C80163EE70E00E949F1E009769F553
:1015B00080E090E060E670E00E94CD1EDC014C917E
:1015C0004053423008F0BEC000D000D000D0EDB78C
:1015D000FEB731968091620190916301ADB7BEB7BD
:1015E00012969C938E9311978AED90E09383828359
:1015F00050E022E330E0429FC001439F900D529F94
:10160000900D11248D5F9E4F34C0C80166ED70E0CF
:101610000E949F1E009709F042C080E090E060E6C3
:1016200070E00E94CD1EDC014C914053423008F026
:1016300089C000D000D000D0EDB7FEB731968091C0
:10164000620190916301ADB7BEB712969C938E93E1
:1016500011978DEC90E09383828350E022E330E099
:10166000429FC001439F900D529F900D11248D5EAB
:101670009E4F958384830E94631F809162019091A5
:101680006301FC01DF010D900020E9F7BD0161500D
:1016900070406E1B7F0BEDB7FEB736964DC0C8018C
:1016A00069EC70E00E949F1E009709F04BC02DB7B7
:1016B0003EB7205130400FB6F8943EBF0FBE2DBF4D
:1016C000EDB7FEB731968091620190916301ADB79D
:1016D000BEB712969C938E93119785EA90E0938300
:1016E00082838091A500848315828091A4008683E3
:1016F00017828091A300808711868091A200828743
:1017000013868091A100848715868091A00086872A
:1017100017860E94631F8091620190916301FC0112
:10172000DF010D900020E9F7BD01615070406E1B94
:101730007F0BEDB7FEB770960FB6F894FEBF0FBEE5
:10174000EDBF0EC080916201909163016DE970E080
:101750000E94BB1E809162019091630167E070E07E
:101760000E947E15A0960FB6F894DEBF0FBECDBFC7
:10177000CF91DF911F910F91089580915F0181FFBB
:1017800002C00E94600980915F0182FF10C08091B9
:1017900062019091630165E970E00E94BB1E809137
:1017A00062019091630167E070E00E947E150895E8
:1017B0000F931F93CF93DF93C3EFD0E01092F3000A
:1017C00001E00093230116E610932401CE01409618
:1017D00066E671E00E94BB1ECE01809662E671E073
:1017E0000E94BB1E109225010093550110935601D3
:1017F00085E391E06EE571E00E94BB1E85E491E017
:101800006AE571E00E94BB1EDF91CF911F910F919D
:101810000895EF92FF920F931F93CF93DF9380E091
:101820000E94850C2DB73EB7285030400FB6F89473
:101830003EBF0FBE2DBFEDB6FEB60894E11CF11CF5
:10184000C3EFD0E0EDB7FEB7D283C18304E610E06A
:10185000F70113830283BC0180E090E00E94E51B46
:1018600020E030E040EA5BE30E94221CF701648341
:101870007583868397830E94401F2DB73EB7285FEC
:101880003F4F0FB6F8943EBF0FBE2DBF81E00E94C0
:10189000850CEDB7FEB738970FB6F894FEBF0FBEB4
:1018A000EDBFEDB6FEB60894E11CF11CE296D283C2
:1018B000C183F70113830283BC0180E090E00E94A2
:1018C000E51B20E030E040EA5BE30E94221CF701C8
:1018D00064837583868397830E94401F2DB73EB72C
:1018E000285F3F4F0FB6F8943EBF0FBE2DBFDF916C
:1018F000CF911F910F91FF90EF90089587B18F7353
:1019000087B986B1876886B9089590919F00981726
:1019100049F0877080939F0097B1907E97B997B1F7
:10192000982B97B9369A3699FECF24B135B1C901B3
:1019300008959C0141505040460F571FDB0110C0D5
:10194000FC91E0E011968C911197BF01680F711D19
:10195000260F371F2617370710F42F5F3F4F1296B9
:10196000A417B50768F3A417B50749F49C9180E064
:10197000280F391F2817390710F42F5F3F4FC9016F
:101980000895FC014381460F40935E01872F9927FC
:101990002281280F20935D01A181A0935C015081D9
:1019A00050935B0130E02817390748F48A2F8F5F86
:1019B00080935C01882319F45F5F50935B01842F4F
:1019C00090E070708617970798F480915D018F5FA3
:1019D00080935D01882361F480915C018F5F809327
:1019E0005C01882329F480915B018F5F80935B0108
:1019F0000895BC01809164019091650108960E9450
:101A0000C10CE0916401F091650180915B018087D8
:101A100080915C01818780915D01828780915E0168
:101A20008387089580E090E06BE172E044E150E04C
:101A30000E94990C009719F0382F292F02C02FEF20
:101A40003FEFC9010895CF93DF9380911E02C82F05
:101A5000D0E0649790911D0280E0C80FD91FCE019D
:101A6000069667E272E048E050E00E94990C6FE24F
:101A700072E0AE010E94990C009719F0382F292FBF
:101A800002C02FEF3FEFC901DF91CF91089580E0B1
:101A900009C0E82FF0E0EE0FFF1FE950FE4F118262
:101AA00010828F5F8530A8F340E08DE190E00DC09B
:101AB000242F30E0289FF001299FF00D389FF00D72
:101AC0001124EA59FE4F118E4F5F453088F380E0B4
:101AD00094E09093B1008093B00020E011C0822F79
:101AE00090E0FC01EE0FFF1F33E0880F991F3A953D
:101AF000E1F7E80FF91FE759FB4F158214822F5FBA
:101B0000253068F32093AC0008951F93FC01809169
:101B1000B0009091B10001962DE78030920710F04F
:101B200080E090E1582F492F10E017C0212F30E0BE
:101B3000D901AA0FBB1F220F331F220F331F220F01
:101B4000331FA20FB31FA759BB4F14962D913C9181
:101B5000159724173507F9F21F5F153039F7909361
:101B6000B1008093B00040E029C0242F2F5F842F64
:101B700090E0DC01AA0FBB1F13E0880F991F1A9594
:101B8000E1F7A80FB91FA759BB4F14968D919C91EF
:101B90001597009791F44093AC00842F90E09C013E
:101BA000220F331FA3E0880F991FAA95E1F7280F92
:101BB000391F27593B4F49F47EC0422F4530A8F2C8
:101BC0004093AC0020E030E076C0842F90E0DC0150
:101BD000AA0FBB1F13E0880F991F1A95E1F7A80FF2
:101BE000B91FA759BB4F8091B0009091B1009827C1
:101BF0008927982715969C938E931497842F90E0AD
:101C0000DC01AA0FBB1F13E0880F991F1A95E1F79B
:101C1000A80FB91FA759BB4F17967C936E931697C1
:101C2000309799F4842F90E0FC01EE0FFF1FA3E0A2
:101C3000880F991FAA95E1F7E80FF91FE759FB4FA5
:101C4000108211821282138226C0842F90E0DC0160
:101C5000AA0FBB1F63E0880F991F6A95E1F7A80FD1
:101C6000B91FA759BB4F808191818D939C93842F7D
:101C700090E0DC01AA0FBB1F13E0880F991F1A9593
:101C8000E1F7A80FB91FA759BB4F82819381139623
:101C90009C938E931297842F90E0FC01EE0FFF1F10
:101CA00063E0880F991F6A95E1F7E80FF91FE7597C
:101CB000FB4F80E48087C9011F91089540E013C065
:101CC000E42FF0E0542F5F5FEE0FFF1FE950FE4F4F
:101CD000208131812115310529F44093AC00918395
:101CE00080830895452F453058F34093AC00089504
:101CF000EF92FF920F931F93CF93DF93C0916401F4
:101D0000D0916501843009F4D6C103E412E0109348
:101D100063010093620110935A01009359018330CB
:101D200059F4898D8F70833009F0D7C688899989D5
:101D3000009709F0D2C68DC0823009F08EC0809124
:101D4000A9008F5F8093A900882399F48091A8004F
:101D50008F5F8093A800882361F48091A7008F5F34
:101D60008093A700882329F48091A6008F5F809339
:101D7000A600109258011092570110926804109218
:101D80006704898D873011F0853041F48A8D8F5F2B
:101D90008A8F883709F0A1C6198E9FC6882309F457
:101DA0009CC6288939892115310509F44EC09A8DC0
:101DB000292F21502A8F992309F08FC69B8D9830A7
:101DC00031F0282F2150223048F4953039F4198E03
:101DD00080E880935F010E94F20451C5953048F479
:101DE00023E030E0092E02C0220F331F0A94E2F7ED
:101DF00001C020E32A8F9F5F9B8F90E08F709070CF
:101E000083309105E1F0843091054CF481309105E7
:101E100009F433C38230910509F05FC60DC08630E6
:101E2000910509F4C8C48830910509F4C4C484300C
:101E3000910509F052C6BFC410923C0221C384E050
:101E400080935F010E94F2044CC58F70833009F0CB
:101E500044C688E080935F0107C5853019F5E0919D
:101E60006001F091610184819581009709F435C684
:101E700010926501109264010C50104010936301A0
:101E80000093620110935A01009359011092680463
:101E900010926704109258011092570188E08093C5
:101EA0005F0107C10852104080911B02853409F080
:101EB00014C690911D0280E020911E027C01E20E6A
:101EC000F11C80915701909158018E159F0508F4DF
:101ED00004C6F0925801E09257018091210290E0EF
:101EE0008F739070009709F0F8C5809122028823C3
:101EF00009F0F3C58091090290910A02009739F424
:101F000020910B0230910C022115310549F12091ED
:101F10002402213189F420912B0230912C024FEFC1
:101F20002F3F340749F420912D0230912E026FEF9C
:101F30002F3F360709F45BC020912B0230912C0211
:101F40002817390709F0C9C520912D0230912E02BA
:101F500080910B0290910C022817390709F0BDC53A
:101F60000E94120D7FEF8F3F970709F0B6C5809151
:101F70002402863009F4F4C08131C9F1813009F0BE
:101F8000ACC5EBE1F2E080912F02883009F0A5C5E5
:101F9000148A80913102909132022FEF873F92078D
:101FA00010F0099601C00896978B868B80912702C6
:101FB0009091280290932C0280932B028091290209
:101FC00090912A0290932E0280932D028091090213
:101FD00090910A02909328028093270280910B022D
:101FE00090910C0290932A02809329027AC5C7012E
:101FF0004C979093580180935701E9E6F4E03BC079
:10200000848195810097B1F12091310230913202A3
:102010002817390779F586819781009739F0209143
:102020002F02309130022817390721F580819181E4
:10203000009731F4228133812115310559F420C0F4
:102040004FEF8F3F940731F4228133816FEF2F3FA1
:102050003607B1F02091270230912802281739075E
:1020600049F42091290230912A0282819381281714
:10207000390731F03A9674E0EB39F70708F229C5D1
:10208000F0936101E0936001109265011092640188
:1020900082E080935F0187E392E0909363018093F5
:1020A000620190935A018093590110926804109232
:1020B00067040E940405809167049091680400976A
:1020C00009F40BC59C01245E3F4F309358012093C7
:1020D0005701EBE1F2E032832383A0916001B091DC
:1020E000610118962C911897208721E12187089685
:1020F000982789279827918F808F138E128E149698
:102100008D919C911597958B848B16968D919C91B2
:102110001797978B868B8091090290910A02909372
:1021200028028093270280910B0290910C029093D9
:102130002A02809329028D919C91119790932C02F1
:1021400080932B0212968D919C91139790932E025F
:1021500080932D02B896F0936301E09362019DC4D1
:102160000E94230DEFEF8F3F9E0709F0B6C4C6E62D
:10217000D1E0498D442329F120913102309132027E
:102180008C819D8128173907E1F420912F0230912D
:1021900030028E819F812817390799F420912702F8
:1021A00030912802888199812817390751F42091AC
:1021B000290230912A028A819B812817390709F464
:1021C00075C16D96F1E0C73FDF0799F680913C023B
:1021D0008F738230D9F480913102909132029093C2
:1021E000AB008093AA0040E00DC0E42FF0E0EE0FBA
:1021F000FF1FE950FE4F208131814F5F8217930707
:1022000009F46EC0453088F34093AC0080913C02E5
:1022100082FD63C484E1F80181A388E290E0909399
:1022200058018093570180E580A3809136029091F8
:102230003A02938F3091350290913902928F368F06
:102240002091340290913802918F258F9091330222
:102250009093AC0040913702408F948F8F5F878FAF
:10226000882361F4832F8F5F868F882339F4822F30
:102270008F5F858F882311F49F5F948F80912F0249
:10228000909130029093AB008093AA00209131028C
:1022900030913202F801358B248B978B868B80919D
:1022A00027029091280290932C0280932B02809118
:1022B000290290912A0290932E0280932D02809100
:1022C000090290910A02909328028093270280913C
:1022D0000B0290910C0290932A0280932902C9C3A9
:1022E0001092AC0040E0C0E0D0E08DE190E026C06C
:1022F000242F30E0289FF001299FF00D389FF00D2A
:102300001124EA59FE4F218D222321F44093AC0081
:10231000EF0118C0273089F4209721F0328D2A8DE3
:10232000231758F4242F30E0289FE001299FD00D77
:10233000389FD00D1124CA59DE4F4F5F4530C0F28F
:102340004093AC00209709F4C8C3D0936501C093B3
:10235000640183E08A8F888F1E8A84E08F8B1B8EB6
:1023600080913102909132029D838C8380912F0263
:10237000909130029F838E83809127029091280252
:10238000998388838091290290912A029B838A8372
:1023900081E0898F8091A6008C878091A7008D872E
:1023A0008091A8008E878091A9008F8781E090E0BE
:1023B000998B888B809136028B87809135028A8732
:1023C00080913402898780913302888781E090E090
:1023D0000E94F90C80913B02282F30E0207F307062
:1023E000213531050CF449C082958F7090E0059736
:1023F000880F991F880F991F5091AD0040E034C09D
:10240000F901E35FFD4F56A9552329F44093AC0031
:102410001092AD0032C0513011F44F5F25C05230E0
:10242000E1F467A96430C9F44093AC005093AD0067
:1024300030AD20E081AD90E0822B932B9093AB00E8
:102440008093AA00F2E083329F0710F082E292E0CC
:102450009B8B8A8B9D8B8C8B10C0235F3D4FF9012A
:1024600027A9222331F0420F242F30E02817390703
:102470003CF24093AC005093AD0080E180933C026D
:10248000EBE1F2E080913C02826081A382E080A7D0
:1024900094E091A782A782E283A78CE290E09093D8
:1024A00058018093570180E680A3A1C2D0936501B3
:1024B000C093640110925F0180913C0290E082FF22
:1024C00003C0198E80E23AC220913B0222952F7000
:1024D000220F220F2093AC00B701621B71099B01F0
:1024E0002451304030935801209357014F704230AF
:1024F00031F4AC014F7350704231510509F121158F
:10250000310531F49C012370307021153105C1F083
:10251000309133022885321709F05DC230913402C0
:102520002985321709F057C2309135022A853217B2
:1025300009F051C2309136022B85321709F04BC297
:1025400084FF4AC0688979896115710509F444C01E
:10255000CE010C960E94C10C3091370280915B0134
:102560003817D1F52091380280915C012817A1F528
:102570009091390280915D01981771F580913A022E
:1025800040915E01841741F53C872D879E878F8798
:102590008B8D8823D1F42E89888D9A8D891B922F5B
:1025A000969596959695891B280F2E8B9F89392F86
:1025B00036953695931B87FD8195980F9F8B822FBB
:1025C000869586958695890F888F81E080935F0137
:1025D000888D8A8F198A188A298D30E0C9018F70F9
:1025E00090708430910509F4AEC18530910564F492
:1025F0008230910591F1833091050CF0B2C08130A9
:10260000910509F06AC211C08630910509F4DBC159
:10261000863091050CF4B7C18730910509F4DBC110
:102620008830910509F059C283C180915F0180FF14
:1026300054C283E0898F80E480935F01198A188AED
:102640008091570190915801009709F409C122E443
:1026500020935F010E94F90C03C180915F0180FF0C
:1026600075C080913C028F73823109F06FC08091F8
:102670003B02282F30E0207F3070213531050CF4EB
:1026800049C082958F7090E00597880F991F880F39
:10269000991F5091AD0040E034C0F901E35FFD4F58
:1026A00056A9552329F44093AC001092AD0032C0D6
:1026B000513011F44F5F25C05230E1F467A9643006
:1026C000C9F44093AC005093AD0030AD20E081AD33
:1026D00090E0822B932B9093AB008093AA0072E042
:1026E0008332970710F082E292E09B8B8A8B9D8B5E
:1026F0008C8B10C0235F3D4FF90127A9222331F0B5
:10270000420F242F30E0281739073CF24093AC00E9
:102710005093AD0083E0898F809133028887809148
:1027200034028987809135028A87809136028B87AF
:1027300081E090E00E94F90C82E480935F01198AA5
:10274000188A10925801109257018AC080E2809333
:102750005F010E94F204E0916401F0916501118E25
:1027600055CD80913C0280FF2AC024FD28C0888975
:102770009989009709F0B1C1809157019091580152
:1027800001960E94F90C20915F01822F8061809355
:102790005F018091570190915801009719F02261D3
:1027A00020935F010E94F20481E090E0998B888B76
:1027B00088E0898F1B8E81E180933C020FC185FFE9
:1027C0001CC05091410240E08091420290E0842B75
:1027D000952B4091620150916301480F591F50930E
:1027E0006301409362014091570150915801481B89
:1027F000590B509358014093570180915701909184
:102800005801009749F024FD07C020915F01226024
:1028100020935F010E94F90C90913D0280E020918D
:102820003E02820F911D9093AB008093AA002C89E9
:102830003D892817390710F0009721F43093AB0039
:102840002093AA008091AA009091AB009B8B8A8B69
:1028500080915F0190E083709070009709F43DC112
:1028600010926804109267040E94F20480915F0144
:1028700085FF07C01092680410926704198E84E1E6
:102880009BCF84FF0AC0109268041092670481E015
:1028900090E0998B888B84E08CCF209167043091F5
:1028A000680421153105E1F080FF02C0198A188AF9
:1028B00088899989009781F48A899B89821793076F
:1028C00020F490936804809367048091670490914A
:1028D0006804998B888B04C0909368048093670484
:1028E0001B8E8091590190915A01909363018093BE
:1028F00062018091670490916804009759F088897B
:102900009989009739F088969093580180935701E0
:1029100088E10BC080915F0181FFDFC088E290E019
:10292000909358018093570180E180933C025CC0F2
:1029300080915F0180FFD1C0198E80E180935F019B
:102940000E94F204CAC080915701909158010097EB
:1029500011F00E94F90C90913C0280915F0190FF70
:102960000BC080FF06C087E0898F1A8E198A188AEB
:1029700019C086E0898F16C080FF1EC085E0898F50
:10298000198A188AAAC0809157019091580100971E
:1029900011F00E94F90C80913C0280FF0DC087E08D
:1029A000898F1A8E81E090E00E94F90C80E180937B
:1029B0005F010E94F2040FC080915701909158016D
:1029C000009749F48AC080915F0180FF86C087E04C
:1029D000898F1A8E82C080E1F80181A388E290E09D
:1029E000909358018093570180E580933B02EBE17F
:1029F000F2E08885848F8985858F8A85868F8B858F
:102A0000878F8C85808F8D85818F8E85828F8F8536
:102A1000838F86E081878C819D81958B848B8E81CD
:102A20009F81978B868B8091090290910A029093E7
:102A300028028093270280910B0290910C029093C0
:102A40002A02809329028881998190932C02809395
:102A50002B028A819B8190932E0280932D02898D77
:102A600084FF03C013A212A204C082E082A382E208
:102A700083A3CBE1D2E080E48887809157019091D5
:102A800058019A838B831FA21EA21DA21CA20E9422
:102A9000230D809590959DA38CA3CBE1D2E085E496
:102AA00080931B0219821F821E828091AE0090913A
:102AB000AF0001969093AF008093AE009C838D830E
:102AC0001B861A860E94120D809590959B878A8797
:102AD00008C0F0936101E0936001109258011092D8
:102AE000570110925F01DF91CF911F910F91FF90DD
:102AF000EF900895382F292FC9010895AC019B014B
:102B00001616170684F46093670430936804609186
:102B1000590170915A018617970729F0CB01BA0124
:102B2000A9010E94D21E0895CF92DF92FF920F93C7
:102B30001F93CF93DF93DC011092B600FF242BE0AC
:102B400030E046C08F2D90E0829F6001839FD00CC3
:102B5000929FD00C1124A60149545F4FFA01C08105
:102B6000D181209759F1428153814115510531F1AD
:102B70000D911C9111970C171D0701F51296CD911F
:102B8000DC911397C417D507C9F4F092B600F6018B
:102B9000E554FF4F262F372FD90126E00D900192E3
:102BA0002150E1F72BE030E0829FF001839FF00D90
:102BB000929FF00D1124E954FF4F76C0829FF001DF
:102BC000839FF00D929FF00D1124E954FF4FF39471
:102BD0008F2D853008F4B6CF40E08BE090E016C032
:102BE000242F30E0289FF001299FF00D389FF00D31
:102BF0001124E954FF4F208131812115310529F439
:102C0000228133812115310519F04F5F453040F3A2
:102C10004093B6004530B1F5F090EE004F2D50E0F6
:102C200000E020E030E08BE090E018C0C32FD0E05F
:102C3000C89FF001C99FF00DD89FF00D1124E954F1
:102C4000FF4F1285EA01C11BD109E02FF0E0EC171C
:102C5000FD071CF40F2D011B232F3F5F353030F390
:102C60000093EF002093F0002093B60030E08BE05B
:102C700090E0289FF001299FF00D389FF00D11245E
:102C8000E954FF4F8D919D910D90BC91A02DEF01C6
:102C900089939993A993B993862F972FDC0186E0A6
:102CA0000D9009928150E1F78091EE008287DF91CB
:102CB000CF911F910F91FF90DF90CF9008951092C8
:102CC000B6008BE090E012C0242F30E0289FF00186
:102CD000299FF00D389FF00D1124E954FF4F108209
:102CE0001182128213824F5F4093B6004091B6006A
:102CF000453050F308958091EE008F5F8093EE0091
:102D00001092B6002BE030E023C0862F90E0829F27
:102D1000F001839FF00D929FF00D1124E954FF4FB5
:102D20008281938140815181842B952B009769F09A
:102D30008091EE0090E04285841B910988379105CF
:102D400024F010821182128213826F5F6093B600AA
:102D50006091B6006530C8F2089580915701909156
:102D600058018A32910528F41092580110925701A7
:102D7000089510925801109257018091210290916C
:102D8000220221E08030920731F022E08030920769
:102D900009F092C075C020913302309134028091C5
:102DA000090290910A022817390709F085C020917D
:102DB00035023091360280910B0290910C02281757
:102DC000390709F079C089E292E063E272E00E947B
:102DD000941580E092E09093220280932102EDE22C
:102DE000F2E0DF011A9786E00D9001928150E1F741
:102DF000A3E2B2E0E0EAF0E086E001900D928150BB
:102E0000E1F7A3E1B2E0E0EAF0E086E001900D92A4
:102E10008150E1F7EDE0F2E0DF01909686E00D9061
:102E200001928150E1F78091290290912A029093BA
:102E300034028093330280912B0290912C02909364
:102E40003602809335028091090290910A02909394
:102E50002A028093290280910B0290910C02909398
:102E60002C0280932B0288E096E090931A028093C4
:102E700019028AE290E090935801809357010895D7
:102E800020913302309134028091090290910A021C
:102E90002817390789F42091350230913602809144
:102EA0000B0290910C022817390731F489E292E065
:102EB00063E272E00E949415089520912B023091F4
:102EC0002C024FEF2F3F340791F480912D02909107
:102ED0002E024FEF8F3F940751F4ADE0B2E0E9E6E8
:102EE000F0E086E001900D928150E1F7CFC0809133
:102EF000090290910A02822793274091050250917E
:102F0000060284239523009791F440912D0250915D
:102F10002E0280910B0290910C02842795276091DC
:102F200007027091080286239723009789F0809109
:102F30000102909102029093B3008093B2008091BD
:102F40000302909104029093B5008093B40008C0EE
:102F50003093B3002093B2005093B5004093B40077
:102F60004091B2005091B3002091B4003091B5006F
:102F7000A0E08BE090E016C06A2F70E0689FF0013F
:102F8000699FF00D789FF00D1124E954FF4F608187
:102F900071814617570729F4628173812617370715
:102FA00019F0AF5FA53040F3A093B600A53009F04B
:102FB00065C08DE092E06FEF70E046E050E00E9467
:102FC000DB1EADE2B2E086E0FD0111928A95E9F7E1
:102FD0005A97E0EAF0E086E001900D928150E1F727
:102FE000A3E2B2E0E0EAF0E086E001900D928150C9
:102FF000E1F78091B2009091B300909334028093F6
:1030000033028091B4009091B50090933602809382
:1030100035028091090290910A0290932A028093CE
:10302000290280910B0290910C0290932C028093C4
:103030002B0280E091E090932202809321029093F2
:103040001C0280931B0288E090E090931E02809304
:103050001D0286E080931F0284E08093200288E0B6
:1030600096E090931A028093190283E492E0909381
:103070006301809362018AE290E01CC0ADE0B2E09F
:10308000349686E001900D928150E1F7A3E1B2E021
:10309000E0EAF0E086E001900D928150E1F788E0EF
:1030A00090E090931A0280931902809157019091B9
:1030B00058010E9690935801809357010895A3E10B
:1030C000B0E0E5E6F8E10C94321D6C017F876E8775
:1030D000FC0117821682838181FD04C06FC34C8579
:1030E0005D8504C01E010894211C311CF6019381EA
:1030F000EE85FF8593FD859193FF8191FF87EE8794
:10310000882309F457C3853241F493FD859193FFD9
:103110008191FF87EE87853259F490E0B6014A8BA2
:103120005B8B0E94141F4A895B895D874C87D7CFD0
:1031300010E0FF2400E00032B0F48B3269F08C32F2
:1031400028F4803251F0833271F40BC08D3239F0A3
:10315000803349F401602CC00260046029C008601B
:1031600027C0006125C007FD2EC0282F20532A301C
:1031700098F406FF08C0812F880F182F110F110F28
:10318000180F120F15C08F2D880FF82EFF0CFF0C93
:10319000F80EF20E00620CC08E3221F406FD0AC356
:1031A000006406C08C3611F4006802C0883659F4F9
:1031B000EE85FF8593FD859193FF8191FF87EE87D3
:1031C000882309F0B8CF982F9554933018F40061F4
:1031D000805E06C0982F9556933008F09BC10F7EF5
:1031E00006FF16E06FE3E62EE022853619F4F0E4E0
:1031F000EF2A07C0863619F420E8E22A02C011112E
:103200001150E7FE06C01C3340F4912E939427E042
:103210000BC0183030F4212F06C027E03CE3932E7A
:1032200003C027E017E09924CA0104969D878C8784
:10323000FA016081718182819381A101092D0E942F
:10324000BE1D5C016980262D30E0398B288B60FE25
:1032500003C0388933FF06C0E1FC06C0E2FE06C0A9
:1032600000E205C00DE203C00BE201C000E0888966
:1032700099898C7090700097C1F1002311F084E05F
:1032800001C083E08F1558F4F81AE3FC09C080E20E
:1032900090E0B6010E94141FFA94C9F701C0FF2400
:1032A000002329F0802F90E0B6010E94141F888926
:1032B00083FD03C00EE611E00EC00AE611E00BC06C
:1032C000A114B10409F0805290E0B6010E94141FCD
:1032D0000F5F1F4F05C0AE2CBB2490E1A922BB2479
:1032E000F8018491882361F762C2E7FE0EC09A0C50
:1032F000F889F4FF04C08A81813309F49A9419147F
:1033000054F5292D293050F52DC0E6FC2BC0812F16
:1033100090E08A159B054CF03CEFA3163FEFB306F7
:1033200024F080E8E82A01C01150112349F0E2E0BE
:10333000F0E0EC0FFD1FE10FF11D80818033A1F360
:10334000E7FE10C0912E9394812F90E0A816B90645
:1033500044F41A1907C09924939404C098E0992E54
:1033600001C010E0E7FE07C01A141B043CF49501ED
:103370002F5F3F4F05C025E030E002C021E030E084
:10338000002311F02F5F3F4F112329F0812F90E090
:103390000196280F391F8F2D90E02817390714F454
:1033A000F21A01C0FF244E2C5524C201897090707E
:1033B000009749F406C080E290E0B6010E94141F15
:1033C000FA94FF20C1F7002329F0802F90E0B60186
:1033D0000E94141F43FC09C006C080E390E0B601C0
:1033E0000E94141FFA94FF20C1F7E7FE46C0350182
:1033F000B7FE02C06624772425010894411C511CA5
:1034000046185708420C531CF501E919F1094F0100
:10341000812F90E000271127081B190BFFEF6F1673
:10342000FFEF7F0629F48EE290E0B6010E94141FA0
:10343000A614B70434F0861497041CF4F2018081BA
:1034400001C080E30894610871080894411C511C74
:10345000601671062CF090E0B6010E94141FDECFBA
:103460006A147B0441F49A81963320F4953319F45D
:10347000F889F4FF81E390E049C08A81813311F03B
:103480002FEE622290E0B6010E94141F112389F0F2
:103490008EE290E0B6010E94141F02E0F101E00FFD
:1034A000F11D0F5F808190E0B6010E94141F115042
:1034B000A9F744FE03C085E490E002C085E690E0F1
:1034C000B6010E94141FB7FC05C0A114B10441F459
:1034D00064FE06C0B094A194B108B3948DE201C01B
:1034E0008BE290E0B6010E94141F80E305C08F5F5D
:1034F000E6EFFFEFAE0EBF1EFAE0AF16B104BCF769
:1035000090E0B6010E94141FC501C096B6010E944A
:10351000141F4DC1833631F0833789F0833509F0AC
:1035200059C022C09A012E5F3F4F3D872C87FA0178
:1035300080818983310181E0A82EB12C13C09A01CA
:103540002E5F3F4F3D872C87FA016080718006FF18
:1035500003C0612F70E002C06FEF7FEFC3010E94D4
:10356000E21E5C010F7714C09A012E5F3F4F3D872A
:103570002C87FA016080718006FF03C0612F70E024
:1035800002C06FEF7FEFC3010E94C21E5C010068A2
:1035900003FD1CC006C080E290E0B6010E94141F2B
:1035A000FA948F2D90E0A816B906A8F30FC0F30186
:1035B00007FD859107FF81913F0190E0B6010E94D0
:1035C000141FF110FA940894A108B108A114B104D1
:1035D00071F7EDC0843611F0893661F507FF0BC035
:1035E0009A012C5F3F4F3D872C87FA0160817181E2
:1035F000828193810CC09A012E5F3F4F3D872C87BB
:10360000FA0160817181882777FD8095982F0F7668
:1036100097FF08C090958095709561957F4F8F4F6B
:103620009F4F0068A1012AE030E00E94861F982E7B
:10363000921841C0853721F40F7E2AE030E020C087
:10364000097F8F36A9F0803720F4883509F0B2C0A1
:103650000BC0803721F0883709F0ACC001C0006191
:1036600004FF09C0046007C004FF08C0066006C06C
:1036700028E030E005C020E130E002C020E132E087
:1036800007FF0AC0CA0104969D878C87FA016081F2
:1036900071818281938109C0CA0102969D878C87BE
:1036A000FA016081718180E090E0A1010E94861F93
:1036B000982E92180F7706FF09C00E7F911630F4EE
:1036C00004FF06C002FD04C00F7E02C0E92C01C049
:1036D000E12E802F90E004FF0CC0FE01E90DF11DEA
:1036E0002081203311F4097E09C0E39402FF06C053
:1036F00004C086789070009709F0E394A02EBB2454
:1037000003FD14C000FF0FC0EF1428F4192D1F0D86
:103710001E19EF2C08C0192D06C080E290E0B601FA
:103720000E94141FE394EF14C0F304C0EF1410F4CC
:10373000FE1801C0FF24A4FE0FC080E390E0B60194
:103740000E94141FA2FE1FC0A1FE03C088E590E0E6
:1037500010C088E790E00DC0C50186789070009792
:1037600091F0A1FC02C080E201C08BE207FD8DE276
:1037700090E0B6010E94141F06C080E390E0B601FD
:103780000E94141F11509116C0F39A94F101E90D93
:10379000F11D808190E0B6010E94141F9920A9F7C5
:1037A00006C080E290E0B6010E94141FFA94FF2048
:1037B000C1F795CCF6012681378102C02FEF3FEF8C
:1037C000C9016396E2E10C944E1DE89409C097FB91
:1037D0003EF490958095709561957F4F8F4F9F4FE8
:1037E0009923A9F0F92F96E9BB279395F69587952C
:1037F00077956795B795F111F8CFFAF4BB0F11F4EF
:1038000060FF1BC06F5F7F4F8F4F9F4F16C0882395
:1038100011F096E911C0772321F09EE8872F762FCB
:1038200005C0662371F096E8862F70E060E02AF00C
:103830009A95660F771F881FDAF7880F96958795F8
:1038400097F908950BD078C069D028F06ED018F0A1
:10385000952309F05AC05FC01124A2C07ED0A0F306
:10386000959FD1F3950F50E0551F629FF001729F15
:10387000BB27F00DB11D639FAA27F00DB11DAA1F34
:10388000649F6627B00DA11D661F829F2227B00D81
:10389000A11D621F739FB00DA11D621F839FA00D0C
:1038A000611D221F749F3327A00D611D231F849F5C
:1038B000600D211D822F762F6A2F11249F575040B3
:1038C0008AF0E1F088234AF0EE0FFF1FBB1F661F4E
:1038D000771F881F91505040A9F79E3F510570F007
:1038E00014C05EC05F3FECF3983EDCF3869577959D
:1038F0006795B795F795E7959F5FC1F7FE2B880F02
:10390000911D9695879597F9089597F99F6780E897
:1039100070E060E008959FEF80EC089500240A9421
:103920001616170618060906089500240A9412169A
:103930001306140605060895092E0394000C11F4CD
:10394000882352F0BB0F40F4BF2B11F460FF04C07A
:103950006F5F7F4F8F4F9F4F089557FD9058440FD3
:10396000551F59F05F3F71F04795880F97FB991FDE
:1039700061F09F3F79F0879508951216130614069B
:10398000551FF2CF4695F1DF08C016161706180628
:10399000991FF1CF86957105610508940895E89403
:1039A000BB2766277727CB0197F90895629FD0013F
:1039B000739FF001829FE00DF11D649FE00DF11DEA
:1039C000929FF00D839FF00D749FF00D659FF00D99
:1039D0009927729FB00DE11DF91F639FB00DE11D86
:1039E000F91FBD01CF0111240895A1E21A2EAA1BCF
:1039F000BB1BFD010DC0AA1FBB1FEE1FFF1FA2179F
:103A0000B307E407F50720F0A21BB30BE40BF50B9B
:103A1000661F771F881F991F1A9469F76095709524
:103A2000809590959B01AC01BD01CF01089597FB56
:103A3000092E05260ED057FD04D0D7DF0AD0001C72
:103A400038F450954095309521953F4F4F4F5F4F3B
:103A50000895F6F790958095709561957F4F8F4FFB
:103A60009F4F08952F923F924F925F926F927F9255
:103A70008F929F92AF92BF92CF92DF92EF92FF927E
:103A80000F931F93CF93DF93CDB7DEB7CA1BDB0B2A
:103A90000FB6F894DEBF0FBECDBF09942A883988CF
:103AA00048885F846E847D848C849B84AA84B984D6
:103AB000C884DF80EE80FD800C811B81AA81B981E2
:103AC000CE0FD11D0FB6F894DEBF0FBECDBFED01F6
:103AD0000895A0E0B0E0EFE6FDE10C943A1DEC01A2
:103AE000688179818A819B816115710581059105C4
:103AF00021F464E279ED8BE597E02DE133EF41E0CD
:103B000050E00E94171D79018A0127EA31E440E064
:103B100050E00E94D61C5B016C01C801B7012CEE7D
:103B200034EF4FEF5FEF0E94D61C9B01AC012A0DD2
:103B30003B1D4C1D5D1D57FF04C0215030404040CF
:103B40005048288339834A835B835F77B901CA0170
:103B5000CDB7DEB7EAE00C94561D0E94691D0895AA
:103B60008FE690E00E94691D089560936F00709346
:103B7000700080937100909372000895283008F0CF
:103B800027E03327DA01990F311D87FD91600096F8
:103B90006105710539F432602E5F3D9330E32A955B
:103BA000E1F708959F3F30F080387105610509F015
:103BB0003C5F3C5F3D93913008F08068911DDF933E
:103BC000CF931F930F93FF92EF92192F987F9695A3
:103BD000E92F96959695E90FFF27E453FE4F992715
:103BE0003327EE24FF24A701E701059008940794EA
:103BF00028F4360FE71EF81E491F511D660F771F68
:103C0000881F991F0694A1F70590079428F4E70EE2
:103C1000F81E491F561FC11D770F881F991F661F69
:103C20000694A1F70590079428F4F80E491F561F33
:103C3000C71FD11D880F991F661F771F0694A1F714
:103C40000590079420F4490F561FC71FD81F990FDE
:103C5000661F771F881F0694A9F784911095177027
:103C600041F0D695C79557954795F794E7941A95DF
:103C7000C1F7E2E7F1E068941590159135916591EF
:103C8000959105907FE27395E118F10A430B560B6D
:103C9000C90BD009C0F7E10CF11E431F561FC91F05
:103CA000D01D7EF4703311F48A95E6CFE89401506C
:103CB00030F0080F0AF40027021708F4202F23958C
:103CC000022F7A3328F079E37D932A95E9F710C023
:103CD0007D932A9589F6069497956795379517955C
:103CE0001794E118F10A430B560BC90BD00998F051
:103CF00023957E9173957A3308F070E37C932013BB
:103D0000B8F77E9170617D9330F0839571E37D9378
:103D100070E32A95E1F71124EF90FF900F911F9126
:103D2000CF91DF91992787FD90950895FB01DC01E4
:103D300002C005900D9241505040D8F70895FB0104
:103D4000DC018D9181341CF08B350CF4805E659123
:103D500061341CF06B350CF4605E861B611189F3D5
:103D6000990B0895FB01DC018D91059080190110DC
:103D7000D9F3990B0895FB01DC0105900D92002009
:103D8000E1F70895FC010590615070400110D8F7EB
:103D9000809590958E0F9F1F089541EF50E00E94EF
:103DA000ED1E0895FB01DC0102C001900D9241500F
:103DB0005040D8F70895DC0101C06D934150504048
:103DC000E0F70895FC016150704001900110D8F7B0
:103DD000809590958E0F9F1F0895FA01A191B08153
:103DE000009719F41097E1F0CD01DC01CD010D90A1
:103DF000002011F4C00113C0FB012191222319F00E
:103E00002015D9F7F3CFFB012191201519F41E924B
:103E1000119606C02223C1F70D900020A1F7D00112
:103E2000FA01A193B08308950F931F93CF93DF936B
:103E30008C01EB018B8181FF1BC082FF0DC02E81A5
:103E40003F818C819D812817390764F4E881F981CD
:103E50000193F983E88306C0E885F985802F0995E9
:103E6000009731F48E819F8101969F838E8302C0DB
:103E70000FEF1FEFC801DF91CF911F910F910895B0
:103E8000AEE0B0E0E6E4FFE10C94401D0D891E8930
:103E900086E08C831A8309838FEF9FE79E838D834F
:103EA0009E01275E3F4FCE0101966F89788DA90153
:103EB0000E945F18EF81F885E00FF11F10822E96A7
:103EC000E4E00C945C1DAEE0B0E0E9E6FFE10C94A8
:103ED000401D0D891E898EE08C831A8309838FEF24
:103EE0009FE79E838D839E01275E3F4FCE01019603
:103EF0006F89788DA9010E945F18EF81F885E00F26
:103F0000F11F10822E96E4E00C945C1DFA01AA27A2
:103F1000283051F1203181F1E8946F936E7F6E5F0C
:103F20007F4F8F4F9F4FAF4FB1E03ED0B4E03CD0BA
:103F3000670F781F891F9A1FA11D680F791F8A1F9D
:103F4000911DA11D6A0F711D811D911DA11D20D004
:103F500009F468943F912AE0269F11243019305DBE
:103F60003193DEF6CF010895462F4770405D4193AF
:103F7000B3E00FD0C9F7F6CF462F4F70405D4A33FC
:103F800018F0495D31FD4052419302D0A9F7EACFC4
:103F9000B4E0A6959795879577956795BA95C9F7F3
:103FA00000976105710508959B01AC010A2E0694E6
:103FB0005795479537952795BA95C9F7620F731F9F
:0C3FC000841F951FA01D0895F894FFCFEA
:103FCC00200D0A00252E326600FFFFFFFFFFFF01C8
:043FDC0000000000E1
:00000001FF
