:100000000C942A000C943F000C943F000C943F0089
:100010000C943F000C943F000C943F000C943F0064
:100020000C943F000C943F000C943F000C943F0054
:100030000C943F000C943F000C943F000C943F0044
:100040000C943F000C943F000C943F000C943F0034
:100050000C943F0011241FBECFE5D8E0DEBFCDBF1A
:1000600010E0A0E6B0E0EEEEF0E002C005900D92E8
:10007000A038B107D9F70E9441000C9475000C9488
:1000800000000E944C0080E690E00E9461008DE636
:1000900090E00E946100FFCF88E18AB910BC87E63A
:1000A00089B9599886E880BD08951F93182F8A3022
:1000B00019F48DE00E9455005D9BFECF1CB91F9185
:1000C0000895EF92FF92CF93DF93E82EE7017E0130
:1000D000F92EE70102C00E94550089918823D9F7C3
:0E00E000DF91CF91FF90EF900895F894FFCF3D
:1000EE0048616C6C6F2057656C74210A0044617313
:1000FE00206973742065696E20546573740A00005C
:00000001FF
