:100000000C942A000C9447000C9447000C94470071
:100010000C9447000C9447000C9447000C94470044
:100020000C9447000C9447000C9447000C94470034
:100030000C9447000C9447000C9447000C94470024
:100040000C9447000C9447000C9447000C94470014
:100050000C94470011241FBECFE5D8E0DEBFCDBF12
:1000600010E0A0E6B0E0E8E5F7E002C005900D92F0
:10007000AC37B107D9F710E0ACE7B0E001C01D9292
:10008000AD37B107E1F70E9449000C94AA030C9424
:100090000000EF92FF920F931F93DF93CF93CDB7A2
:1000A000DEB7A0970FB6F894DEBF0FBECDBF0E949B
:1000B000870080E690E00E949C000E94B0008E01C4
:1000C0000F5F1F4F81E7E82E80E0F82E80E00E944E
:1000D000B70000D000D000D0EDB7FEB73196ADB775
:1000E000BEB712961C930E931197F382E28295830A
:1000F00084830E94C9008DB79EB706960FB6F89408
:100100009EBF0FBE8DBFC8010E949C00DFCF88E15B
:100110008AB910BC87E689B9599886E880BD0895E8
:100120001F93182F8A3019F48DE00E9490005D9B78
:10013000FECF1CB91F910895EF92FF92CF93DF93EA
:10014000E82EE7017E01F92EE70102C00E9490002F
:1001500089918823D9F7DF91CF91FF90EF9008958F
:1001600087B18F7387B986B1876886B908959091F2
:100170007C00981739F097B1907E97B997B1877046
:10018000892B87B9369A3699FECF24B135B1C9018A
:100190000895AEE0B0E0EFECF0E00C9481030D893F
:1001A0001E8986E08C831A8309838FEF9FE79E83E5
:1001B0008D839E01275E3F4FCE0101966F89788D1A
:1001C000A9010E94EC00EF81F885E00FF11F108279
:1001D0002E96E4E00C949D03ACE0B0E0E2EFF0E09A
:1001E0000C9473036C011B018A01FC0117821682B7
:1001F000838181FFD1C12E010894411C511CF6015D
:100200009381F10193FD859193FF81911F018823D3
:1002100009F4BEC1853239F493FD859193FF819134
:100220001F01853229F490E0B6010E94E902E7CF70
:10023000EE24FF2420E02032B0F48B3269F08C32BF
:1002400028F4803251F0833271F40BC08D3239F0D2
:10025000803349F421602CC02260246029C02860CA
:1002600027C0206125C027FD2CC0382F30533A30DD
:1002700098F426FF08C08E2D880FE82EEE0CEE0CA9
:10028000E80EE30E15C08F2D880FF82EFF0CFF0C23
:10029000F80EF30E20620CC08E3221F426FD78C1D8
:1002A000206406C08C3611F4206802C0883649F4F8
:1002B000F10193FD859193FF81911F01882309F03E
:1002C000BACF982F9554933018F09052933028F469
:1002D0000C5F1F4FFFE3F9830DC0833631F0833786
:1002E00071F0833509F060C022C0F80180818983F4
:1002F0000E5F1F4F420171E0A72EB12C16C062E0C5
:10030000662E712C600E711EF8018080918026FF90
:1003100003C06E2D70E002C06FEF7FEFC4012C8729
:100320000E94DE025C0183012C852F7717C052E00A
:10033000652E712C600E711EF8018080918026FF61
:1003400003C06E2D70E002C06FEF7FEFC4012C87F9
:100350000E94D3025C012C852068830123FD20C00C
:1003600008C080E290E0B6012C870E94E902FA946E
:100370002C858F2D90E0A816B90698F311C0F401D2
:1003800027FD859127FF81914F0190E0B6012C87D1
:100390000E94E9022C85F110FA940894A108B10892
:1003A000A114B10461F7F1C0843611F0893649F522
:1003B00027FF08C0F80160817181828193810C5F01
:1003C0001F4F09C0F80160817181882777FD8095F2
:1003D000982F0E5F1F4F4FE6B42EB22297FF09C031
:1003E00090958095709561957F4F8F4F9F4FF0E866
:1003F000BF2AA2012AE030E00E941503782E74186B
:1004000045C0853731F43FEEB32EB2222AE030E00A
:1004100025C099EFB92EB2228F36C1F0803720F473
:10042000883509F0B5C00DC0803721F0883709F054
:10043000AFC002C020E1B22AB4FE0BC084E0B82AEB
:1004400008C0B4FE09C0E6E0BE2A06C028E030E0DD
:1004500005C020E130E002C020E132E0B7FE08C074
:10046000F80160817181828193810C5F1F4F07C009
:10047000F8016081718180E090E00E5F1F4FA20162
:100480000E941503782E7418FFE7BF22B6FE0BC03A
:100490002EEFB2227E1438F4B4FE07C0B2FC05C0C1
:1004A0008FEEB82202C0A72C01C0AE2C8B2D90E09D
:1004B000B4FE0DC0FE01E70DF11D2081203319F4BB
:1004C000E9EEBE2209C0A394B2FE06C004C086783D
:1004D0009070009709F0A3948B2C9924B3FC14C05E
:1004E000B0FE0FC0AF1428F4E72CEF0CEA18AF2CC5
:1004F00008C0E72C06C080E290E0B6010E94E90245
:10050000A394AF14C0F304C0AF1410F4FA1801C0E0
:10051000FF2484FE0FC080E390E0B6010E94E90250
:1005200082FE1FC081FE03C088E590E010C088E70E
:1005300090E00DC0C40186789070009791F081FC26
:1005400002C080E201C08BE2B7FC8DE290E0B60110
:100550000E94E90206C080E390E0B6010E94E90231
:10056000EA947E14C0F37A94F201E70DF11D8081C4
:1005700090E0B6010E94E9027720A9F706C080E268
:1005800090E0B6010E94E902FA94FF20C1F737CE4D
:10059000F6012681378102C02FEF3FEFC9012C966B
:1005A000E2E10C948F03FC01059061507040011052
:1005B000D8F7809590958E0F9F1F0895FC0161508C
:1005C000704001900110D8F7809590958E0F9F1F75
:1005D00008950F931F93CF93DF938C01EB018B81D1
:1005E00081FF1BC082FF0DC02E813F818C819D81C8
:1005F0002817390764F4E881F9810193F983E883C6
:1006000006C0E885F985802F0995009731F48E8121
:100610009F8101969F838E8302C00FEF1FEFC80159
:10062000DF91CF911F910F910895FA01AA272830E9
:1006300051F1203181F1E8946F936E7F6E5F7F4FAF
:100640008F4F9F4FAF4FB1E03ED0B4E03CD0670F2B
:10065000781F891F9A1FA11D680F791F8A1F911D7E
:10066000A11D6A0F711D811D911DA11D20D009F4CE
:1006700068943F912AE0269F11243019305D319310
:10068000DEF6CF010895462F4770405D4193B3E0F9
:100690000FD0C9F7F6CF462F4F70405D4A3318F0A0
:1006A000495D31FD4052419302D0A9F7EACFB4E051
:1006B000A6959795879577956795BA95C9F7009709
:1006C0006105710508959B01AC010A2E06945795AA
:1006D000479537952795BA95C9F7620F731F841F01
:1006E000951FA01D08952F923F924F925F926F9297
:1006F0007F928F929F92AF92BF92CF92DF92EF92B2
:10070000FF920F931F93CF93DF93CDB7DEB7CA1B32
:10071000DB0B0FB6F894DEBF0FBECDBF09942A885D
:10072000398848885F846E847D848C849B84AA8405
:10073000B984C884DF80EE80FD800C811B81AA8192
:10074000B981CE0FD11D0FB6F894DEBF0FBECDBF5D
:08075000ED010895F894FFCFBC
:1007580050726F6772616D20737461727465640A98
:0C07680000414443303A2025640A0000A0
:00000001FF
