:100000000C942A000C9447000C9447000C94470071
:100010000C9447000C9447000C9447000C94470044
:100020000C9447000C9447000C9447000C9470000B
:100030000C9447000C9447000C9447000C94470024
:100040000C9447000C9447000C9447000C94470014
:100050000C94470011241FBECFE5D8E0DEBFCDBF12
:1000600010E0A0E6B0E0E2EBF1E002C005900D92F6
:10007000A836B107D9F710E0A8E6B0E001C01D929C
:10008000AC36B107E1F70E9449000C94D7000C94FC
:100090000000AF92BF92CF92DF92EF92FF920F9348
:1000A0001F930E94AE000E9497000E94A0005B0177
:1000B0006C0178940E94A0007B018C01DC01CB01D3
:1000C0008A199B09AC09BD0985369105A105B105C1
:1000D00088F380E690E00E94C30057016801EACFF0
:1000E0001F920F920FB60F9211248F939F93AF938D
:1000F000BF938091680090916900A0916A00B091CF
:100100006B000196A11DB11D80936800909369005A
:10011000A0936A00B0936B0084E682BFBF91AF9159
:100120009F918F910F900FBE0F901F90189584E6AE
:1001300082BF83B7856083BF89B7816089BF089517
:100140008FB7F894209168003091690040916A005F
:1001500050916B008FBFB901CA01089588E18AB937
:1001600010BC87E689B9599886E880BD08951F9329
:10017000182F8A3019F48DE00E94B7005D9BFECFE6
:100180001CB91F910895EF92FF92CF93DF93E82E51
:10019000E7017E01F92EE70102C00E94B7008991B4
:1001A0008823D9F7DF91CF91FF90EF900895F894CD
:0201B000FFCF7F
:0801B2005365636F6E640A00DF
:00000001FF
