:100000000C9424010C9441010C9441010C94410185
:100010000C9441010C9441010C9441010C94410158
:100020000C9441010C9441010C9441010C94B604D0
:100030000C9441010C9441010C9441010C94410138
:100040000C9441010C9441010C9441010C94410128
:100050000C9441010200000000037549503A200051
:100060006E6574646973636F766572006E6574663D
:10007000696E64004552524F520D0A004552524F6C
:10008000520D0A004F4B0D0A253032583A253032B6
:10009000583A253032583A253032583A25303258BD
:1000A0003A253032580D0A004D4143004F4B0D0A9E
:1000B00025730D0A004D4158004F4B0D0A25730D55
:1000C0000A004D494E004F4B0D0A25630D0A0044AE
:1000D00054595045004F4B0D0A25640D0A005459E0
:1000E0005045004F4B0D0A25640D0A004445564902
:1000F0004345434F554E54004F4B0D0A25730D0A8F
:1001000000504C414345004F4B0D0A25730D0A002A
:100110004E414D45004F4B0D0A256C750D0A00559B
:100120005054494D45004F4B0D0A25730D0A00569A
:10013000414C554500474554006E616E00696E663E
:100140000000407A10F35A00A0724E18090010A562
:10015000D4E80000E87648170000E40B54020000E1
:10016000CA9A3B000000E1F5050000809698000067
:100170000040420F000000A0860100000010270090
:10018000000000E803000000006400000000000A16
:1001900000000000000100000000002C76D888DC80
:1001A000674F0823DFC1DFAE59E1B1B796E5E3E45D
:1001B00053C63AE651997696E8E6C28426EB898CD6
:1001C0009B62ED407C6FFCEFBC9C9F40F2BAA56F38
:1001D000A5F490055A2AF75C936B6CF9676DC11B07
:1001E000FCE0E40D47FEF520E6B500D0ED902E03CF
:1001F00000943577050080841E080000204E0A0018
:100200000000C80C333333330F986E12831141EF63
:100210008D2114893BE65516CFFEE6DB18D1844BC1
:10022000381BF77C1D901DA4BBE424203284725E31
:10023000228100C9F124ECA1E53D276364696E6F5A
:1002400070737578585B000011241FBECFE5D8E0AD
:10025000DEBFCDBF10E0A0E6B0E0ECE0F9E402C004
:1002600005900D92A039B107D9F715E0A0E9B0E0EB
:1002700001C01D92A432B107E1F70E9487010C94DE
:1002800084240C940000EF92FF920F931F93562F3B
:10029000442733272227E92EFF24002711272E2960
:1002A0003F29402B512BE12CF12CAFEF0A2F112DC0
:1002B000E622F72208231923EF2CF02E012F112715
:1002C00007FD1A952E293F29402B512B6070807015
:1002D0009070982F872F762F6627262B372B482B49
:1002E000592BB901CA011F910F91FF90EF9008950A
:1002F000E0E6F8E020E030E004C092918291282707
:10030000392785E0E632F807C0F7C90108954F9212
:100310005F926F927F928F929F92AF92BF92CF9295
:10032000DF92EF92FF920F931F93CF93DF930E9480
:10033000F4040E94DD0478940E94E6046C3221E00B
:10034000720720E0820720E09207B0F30E94280D98
:100350000E94E6043B014C018FEB90E064E570E005
:1003600046E050E00E94E61F8FEB90E00E948D0374
:100370000E94880F0E94A0180E947801BC0180E0B2
:1003800090E00E94051F0E9426050E943605EE247B
:10039000FF248701AA24BB2465016DE1462E512C60
:1003A0008AEA92E068E572E00E9439049093330291
:1003B00080933202009761F18091B6029091B7026A
:1003C0008830910589F481E00E94B9108091320251
:1003D00090913302009709F47BC00E949E196091AE
:1003E0003202709133020FC026E08830920709F084
:1003F0006FC00E94EE186091320270913302611555
:10040000710509F465C08AEA92E00E94F00360C0B9
:100410000E94E6046A197B098C099D096333710502
:100420008105910508F454C00E94E6045B016C014B
:10043000C0E0D0E0C49DC001C59D900DD49D900D3D
:1004400011248F5B9D4F9093400280933F0282E086
:100450000E94B9108091320290913302009751F0BE
:100460000E949E1960913202709133028AEA92E0F2
:100470000E94F0032196C330D105E1F6C0E0D0E040
:10048000CE01880F991F9E0143E0220F331F4A952A
:10049000E1F7820F931F8A5F9A4F90933C028093FB
:1004A0003B0285E00E94B9108091320290913302A4
:1004B000009751F00E949E196091320270913302B0
:1004C0008AEA92E00E94F0032196C330D105C1F67A
:1004D0000E94E6046E197F09800B910B693E23E0B0
:1004E000720720E0820720E0920730F00E94E604C5
:1004F0007B018C010E94BC180E94E60466197709F2
:1005000088099909633371058105910508F448CF7D
:100510000E94C30C0E94E6043B014C0141CFC498E9
:100520000895C49A08950E948F028FEF8FB9779B28
:10053000FECF0E94910208950F931F93CF93DF93F4
:10054000EC018B010E948F028AE38FB9779BFECF6B
:1005500007C01FB8779BFECF8FB189930150104021
:1005600001151105B1F70E949102DF91CF911F9102
:100570000F9108950F931F93CF93DF93EC018B019D
:100580000E948F028AE78FB9779BFECF06C08991C0
:100590008FB9779BFECF0150104001151105B9F7B7
:1005A0000E949102DF91CF911F910F9108951F93A7
:1005B000DF93CF930F92CDB7DEB7182F69830E94D8
:1005C000F3020E948F021F71106A1FB96981779B25
:1005D000FECF6FB9779BFECF0E9491020F90CF9113
:1005E000DF911F910895282F30E0A9014F715070BD
:1005F0004B315105BCF44091920050E020763070B0
:100600004217530779F08076809392008FE163E080
:100610000E94D702609192006295669567708FE1A3
:100620000E94130308951F93DF93CF930F92CDB7CA
:10063000DEB7182F69830E94F3020E948F021F7198
:1006400010681FB96981779BFECF6FB9779BFECF8A
:100650000E9491020F90CF91DF911F9108951F93F7
:10066000DF93CF930F92CDB7DEB7182F69830E9427
:10067000F3020E948F021F7110641FB96981779B7A
:10068000FECF6FB9779BFECF0E9491020F90CF9162
:10069000DF911F9108951F93DF93CF930F92CDB7F2
:1006A000DEB7182F0E94F3020E948F02812F8F71F4
:1006B0008FB9779BFECF1FB8779BFECF17FF03C084
:1006C0001FB8779BFECF8FB189830E9491028981E9
:1006D0000F90CF91DF911F9108951F93DF93CF93D8
:1006E0000F92CDB7DEB7982F162F84ED692F79833F
:1006F0000E942F0386ED612F0E942F0387ED7981E1
:10070000672F0E942F038AEE0E944B0380FDFBCFD0
:100710000F90CF91DF911F910895CF93DF93EC015C
:1007200087B3806B87BBBE98709A8DB180658DB999
:100730000E9493028FE99FE00197F1F700C000004B
:1007400088E060E00E942F0389E060E00E942F03B0
:100750008AE06FEF0E942F038BE069E10E942F0374
:1007600080EC6DE00E94130381EC60E80E94D702E8
:1007700082EC63E30E9413038AEC6CE50E942F0372
:100780008BEC62E00E942F0384EC65E10E942F0352
:1007900086EC62E10E942F0384EE68810E942F03A1
:1007A00085EE69810E942F0382EE6A810E942F03E9
:1007B00083EE6B810E942F0380EE6C810E942F03D9
:1007C00081EE6D810E942F0380E060E071E00E9465
:1007D0006D038FE164E00E941303DF91CF910895D0
:1007E000EF92FF920F931F93DF93CF930F92CDB7AA
:1007F000DEB77C018B0119828FE10E944B0383FDE0
:10080000FBCF84E060E00E942F0385E06AE10E9454
:100810002F0382E060E00E942F0383E06AE10E94E0
:100820002F03CE01019661E070E00E94BA02C70179
:10083000B8010E94BA020050164E86E0602F0E9456
:100840002F0387E0612F0E942F038CE168E00E9454
:10085000D7028BE168E00E9413038FE168E00E94F9
:1008600013030F90CF91DF911F910F91FF90EF90A5
:100870000895AF92BF92CF92DF92EF92FF920F93C3
:100880001F93DF93CF9300D000D000D0CDB7DEB759
:100890005C016B0189E30E944B03882309F452C079
:1008A000609190000091910080E00E942F0381E010
:1008B000602F0E942F03CE01019666E070E00E9437
:1008C0009C029A8180E0E980FF24E82AF92AF092CC
:1008D0009100E09290009C8180E00B8110E0082B59
:1008E000192B04501040C016D10608F48601C5012A
:1008F000B8010E949C0288E00E944B03C82E89E048
:100900000E944B03382F20E08C2D90E0822B932BFC
:10091000E816F90639F48CE06FEF0E942F038DE0A2
:1009200069E109C00894E108F1088CE06E2D0E948D
:100930002F038DE06F2D0E942F038EE160E40E9453
:10094000130302C000E010E0C80126960FB6F89429
:10095000DEBF0FBECDBFCF91DF911F910F91FF90F2
:10096000EF90DF90CF90BF90AF9008951F920F92BD
:100970000FB60F9211248F939F93AF93BF938091E3
:10098000930090919400A0919500B09196000196EB
:10099000A11DB11D8093930090939400A0939500A6
:1009A000B093960084E682BFBF91AF919F918F91E3
:1009B0000F900FBE0F901F90189584E682BF83B7EB
:1009C000856083BF89B7816089BF08958FB7F89428
:1009D00020919300309194004091950050919600A1
:1009E0008FBFB901CA01089588E18AB910BC87E6B2
:1009F00089B9599886E880BD08951F93182F8A30C9
:100A000019F48DE00E94FD045D9BFECF1CB91F917F
:100A10000895EF92FF92CF93DF93E82EE7017E01D6
:100A2000F92EE70102C00E94FD0489918823D9F7BD
:100A3000DF91CF91FF90EF9008958BB1881F8827A9
:100A4000881F08955F9BFECF8CB108950E948F0987
:100A50000895E0913F02F09140028481958123E561
:100A6000833C920711F40E947D0C08950E9450056A
:100A70000E944D080895E0913B02F0913C02848170
:100A8000958124E48030920729F020E5833C920789
:100A900031F403C00E94FE0708950E946209089580
:100AA000EF92FF920F931F93DF93CF9300D000D06C
:100AB000CDB7DEB78FEF9FEF9A8389839C838B83BB
:100AC000CE01019660E073E40E94C60F90939900F6
:100AD0008093980020E034E4FC01358324830E9455
:100AE000001F60939E0070939F008093A0009093DE
:100AF000A1000E94E6047B018C010E94001F28ECEB
:100B000030E040E050E0E20EF31E041F151F2CE21F
:100B100031E040E050E00E94671EE60EF71E081F1D
:100B2000191FE092A200F092A3000093A40010937A
:100B3000A500109297000F900F900F900F90CF91FB
:100B4000DF911F910F91FF90EF900895CF93DF9366
:100B5000EC0181E08883898386E08A831B8280910F
:100B60009E0090919F00A091A000B091A1008C8365
:100B70009D83AE83BF830E94E60424E630E040E01C
:100B800050E00E94451EC9010E94BB1799878887C3
:100B900080E890E09B878A871C861D861E861F86BC
:100BA000188A198A1A8A1B8A1C8A1D8A1E8A1F8A19
:100BB000188E198E1A8E1B8EDE015C96EFEBF0E01C
:100BC00086E001900D928150E1F7CE018296FC0102
:100BD0008AE0DF011D928A95E9F7CE018C96FC012F
:100BE00080E4DF011D928A95E9F7CE0184599F4F79
:100BF000FC0180E8DF011D928A95E9F7FE01E451CE
:100C0000FF4F83E68083FE01E351FF4F92E890831C
:100C1000FE01E251FF4F93E59083C151DF4F88837E
:100C2000DF91CF910895FC0125E3219321E0DC01C0
:100C300011962C93119761839F012E5F3F4FC9013D
:100C40000895FC0127E3219322E0DC0111962C9307
:100C500011979F012F5F3F4F81E0818383E0F9016E
:100C600081832E5F3F4FC9010895FC0122E3219348
:100C700024E0DC0111962C9311972091AA00309169
:100C8000AB004091AC005091AD002183328343838F
:100C900054839C012A5F3F4FC9010895FC0126E35C
:100CA000219324E0DC0111962C9311972091A6004A
:100CB0003091A7004091A8005091A9002183328370
:100CC000438354839C012A5F3F4FC9010895EF92EB
:100CD000FF920F931F93CF93DF938C01EC018CE075
:100CE00089932196CE010E9432207E01AC2FBF2D28
:100CF000FD0101900020E9F73197EA1BFB0BD801B9
:100D00001196EC931197CE0FD11DCE01DF91CF91AB
:100D10001F910F91FF90EF900895CF93DF93C091B3
:100D20003D02D0913E02CE010E94A605CE01805127
:100D30009F4F61E00E9413060E94210662E171E06C
:100D40000E946706FC018FEF819380913D02909194
:100D50003E02BF01681B790B0E94BF1782E080939F
:100D60009700DF91CF910895CF93DF93E0913D02FB
:100D7000F0913E0280818230E1F524813581468107
:100D8000578180919E0090919F00A091A000B0910A
:100D9000A100281739074A075B0759F5EF01C05131
:100DA000DF4F80899189A289B3898093AA009093AB
:100DB000AB00A093AC00B093AD00FE0181912981FE
:100DC000EF012196863369F481819281A381B481F8
:100DD0008093A6009093A700A093A800B093A900C9
:100DE00002C08F3F19F0C20FD11DE7CF83E080937F
:100DF0009700DF91CF910895CF93DF93C0913D028B
:100E0000D0913E02CE010E94A6058091A60090914D
:100E1000A700A091A800B091A9008C8B9D8BAE8BF0
:100E2000BF8BCE0180519F4F63E00E9413060E944A
:100E3000350662E171E00E9467060E944E06FC01E1
:100E40008FEF819380913D0290913E02BF01681B1C
:100E5000790B0E94BF1784E080939700DF91CF91B8
:100E60000895EF92FF920F931F93CF93DF93E0913A
:100E70003D02F0913E028081823009F0B8C02481A9
:100E800035814681578180919E0090919F00A0916D
:100E9000A000B091A100281739074A075B0709F0A5
:100EA000A6C0DF01A051BF4F10E0CAE9D0E0FD01AC
:100EB000819111960C9111977F010894E11CF11C0E
:100EC0008330B9F0843018F4813081F505C0833364
:100ED000E9F0853359F526C081819281A381B481DF
:100EE0008093B2009093B300A093B400B093B50088
:100EF0001FC081819281A381B4818093AE009093C1
:100F0000AF00A093B000B093B10012C061817281B4
:100F1000838194810E94430160939A0079838A833C
:100F20009B8306C08181853019F45FC08F3F21F01B
:100F3000D701A00FB11DBBCF112309F458C0809178
:100F4000AA009091AB009093A7028093A602809193
:100F5000AC009091AD009093A9028093A80280917B
:100F6000B2009091B3009093A3028093A20280916B
:100F7000B4009091B5009093A5028093A402809153
:100F8000AE009091AF0090939F0280939E0280915B
:100F9000B0009091B1009093A1028093A0020E94B2
:100FA000E6047B018C0160919A0070919B00809116
:100FB0009C0090919D0024E630E040E050E00E94CB
:100FC000261E9695879577956795E60EF71E081F5E
:100FD000191FE092A200F092A3000093A4001093C6
:100FE000A50085E08093970002C011E0A1CFDF91BA
:100FF000CF911F910F91FF90EF90089580913A0249
:1010000081FF0CC080919700823019F0843031F458
:1010100003C00E94B40602C00E94310780913A02C8
:1010200083FF3AC0809197008130E1F0813028F051
:101030008330D9F0853081F51BC00E94E6049B0106
:10104000AC018091A2009091A300A091A400B09166
:10105000A50082179307A407B507F0F481E08093F9
:10106000970008950E948D0608950E94FC06089539
:101070000E94E6049B01AC018091A2009091A30024
:10108000A091A400B091A50082179307A407B5070B
:1010900018F483E0809397000895DF93CF9300D0F6
:1010A00000D0CDB7DEB78FEF9FEF9A8389839C8303
:1010B0008B83CE01019663EC71E50E94C60F23EC91
:1010C00030E5FC01358324831092B6000F900F9019
:1010D0000F900F90CF91DF910895FC01DB018C916F
:1010E0008F3FC9F411969C9111979F3FA1F41296DE
:1010F0009C9112979F3F79F413969C9113979F3F71
:1011000051F414969C9114979F3F29F415969C9145
:1011100015979F3F21F19081981721F591811196A4
:101120008C9111979817F1F4928112968C911297E5
:101130009817C1F4938113968C911397981791F493
:10114000948114968C911497981761F421E030E003
:10115000958115968C911597981721F405C021E07B
:1011600030E002C020E030E0C9010895EF92FF9224
:101170000F931F93CF93DF9350913D0240913E0216
:101180008091A8029091A9022091A6023091A70215
:10119000822B932B009799F1E52EE7017E01F42E27
:1011A000E701C7016CE670E00E940220009739F564
:1011B0008F81882321F5B701685F7F4F8FEB90E027
:1011C0000E946D080097D9F00E94E6047B018C0113
:1011D0000E94001F28EC30E040E050E00E94671EB3
:1011E0006E0D7F1D801F911F6093B7007093B80034
:1011F0008093B9009093BA0081E08093B600DF91AC
:10120000CF911F910F91FF90EF900895262F372FC8
:10121000D901FC0120E005C03D913193332349F011
:101220002F5F2417C8F305C0FC01E20FF11D1082E7
:101230002F5F2417C8F30895EF92FF920F931F9327
:10124000CF93DF930E94E6040E9443017B018C014F
:10125000C0913D02D0913E02CE0160E670E00E9456
:101260000B202B96DE01EFEBF0E086E001900D9273
:101270008150E1F7FE013696EE82F18202831383FC
:10128000CE010A9662E171E040E20E940609AA9648
:10129000CE0166E271E040E20E94060980913D02C3
:1012A00090913E02BE01605E7F4F681B790B0E94E9
:1012B000BF171092B600DF91CF911F910F91FF9051
:1012C000EF90089580913A0283FF1EC08091B6008E
:1012D000813019F08230C1F415C00E94E6049B01F0
:1012E000AC018091B7009091B800A091B900B09185
:1012F000BA0082179307A407B50730F482E0809301
:10130000B60002C00E941C0980913A0281FF06C00B
:101310008091B600882311F40E94B608089583ECEA
:1013200093E50E949F1008950F931F93DF93CF932F
:10133000CDB7DEB7A0970FB6F894DEBF0FBECDBF16
:10134000E0913D02F0913E02809132029091330291
:10135000E80FF91F108280913D0290913E0260E6F5
:1013600070E00E941D2065E371E00E94EF1F00976E
:1013700009F0A8C280E090E060E670E00E941D20C5
:101380008C016FE271E00E94EF1F009709F045C0E9
:1013900080E090E060E670E00E941D20DC012C916E
:1013A000622F6053693008F08DC230E02053304026
:1013B000442737FD4095542F8091BB009091BC008D
:1013C000A091BD00B091BE00281739074A075B07FE
:1013D00008F078C200D000D000D0EDB7FEB731964B
:1013E00080913D0290913E02ADB7BEB712969C939C
:1013F0008E93119786E291E093838283862F90E00B
:101400009C01220F331F46E0880F991F4A95E1F790
:10141000821B930B865C9E4FECC1C8016FE171E0AB
:101420000E94EF1F009709F500913D0210913E02C6
:101430000E94E6042DB73EB7285030400FB6F8940E
:101440003EBF0FBE2DBFEDB7FEB73196ADB7BEB7ED
:1014500012961C930E93119725E131E0338322837A
:10146000648375838683978375C0C80160E171E0EA
:101470000E94EF1F0097D9F48E010F5F1F4FC80124
:1014800062E171E00E940B2000D000D000D0EDB7E7
:10149000FEB7319680913D0290913E02ADB7BEB746
:1014A00012969C938E93119787E091E021C0C8011A
:1014B00061E071E00E94EF1F0097F9F48E010F5F69
:1014C0001F4FC80166E271E00E940B2000D000D0DF
:1014D00000D0EDB7FEB7319680913D0290913E026B
:1014E000ADB7BEB712969C938E93119788EF90E09C
:1014F00093838283158304837EC1C8016CEE70E000
:101500000E94EF1F0097D1F52DB73EB7285030400D
:101510000FB6F8943EBF0FBE2DBFEDB7FEB73196A4
:1015200080913D0290913E02ADB7BEB712969C935A
:101530008E93119783EE90E0938382838091BB001A
:101540009091BC00A091BD00B091BE0084839583B2
:10155000A683B7830E94BA2080913D0290913E02FB
:10156000FC01DF010D900020E9F7BD0161507040E2
:101570006E1B7F0BEDB7FEB738969EC1C8016EEDAE
:1015800070E00E94EF1F009709F046C080E090E0F5
:1015900060E670E00E941D20DC012C91622F6053F8
:1015A000693008F08FC130E020533040442737FDC8
:1015B0004095542F8091BB009091BC00A091BD003C
:1015C000B091BE00281739074A075B0708F07AC1B7
:1015D00000D000D000D0ADB7BEB7119680913D02CB
:1015E00090913E02EDB7FEB79283818385ED90E046
:1015F00013969C938E931297E62FF0E0CF01880FFD
:10160000991F26E0EE0FFF1F2A95E1F7E81BF90B63
:10161000E65CFE4F84AD4DC0C8016FEC70E00E94E7
:10162000EF1F009709F04CC080E090E060E670E0AA
:101630000E941D20DC012C91622F6053693008F05C
:1016400041C130E020533040442737FD4095542FAE
:101650008091BB009091BC00A091BD00B091BE00F4
:10166000281739074A075B0708F02CC100D000D0C3
:1016700000D0ADB7BEB7119680913D0290913E0269
:10168000EDB7FEB79283818386EC90E013969C932E
:101690008E931297E62FF0E0CF01880F991F16E086
:1016A000EE0FFF1F1A95E1F7E81BF90BE958FE4F03
:1016B000808114968C93149715961C9215979BC055
:1016C000C80162EC70E00E94EF1F009709F045C06E
:1016D00080E090E060E670E00E941D20DC012C912B
:1016E000622F6053693008F0EDC030E02053304085
:1016F000442737FD4095542F8091BB009091BC004A
:10170000A091BD00B091BE00281739074A075B07BA
:1017100008F0D8C000D000D000D0EDB7FEB73196A9
:1017200080913D0290913E02ADB7BEB712969C9358
:101730008E93119789EB90E093838283862F90E0BC
:101740009C01220F331F66E0880F991F6A95E1F70D
:10175000821B930B825B9E4F4CC0C80165EB70E00F
:101760000E94EF1F009709F05AC080E090E060E609
:1017700070E00E941D20DC012C91622F60536930C3
:1017800008F0A0C030E020533040442737FD40959A
:10179000542F8091BB009091BC00A091BD00B091EE
:1017A000BE00281739074A075B0708F08BC000D036
:1017B00000D000D0EDB7FEB7319680913D029091F8
:1017C0003E02ADB7BEB712969C938E9311978CEAEA
:1017D00090E093838283862F90E09C01220F331F39
:1017E00046E0880F991F4A95E1F7821B930B8E59AB
:1017F0009E4F958384830E94BA2080913D029091F0
:101800003E02FC01DF010D900020E9F7BD016150AF
:1018100070406E1B7F0BEDB7FEB736964DC0C8010A
:1018200068EA70E00E94EF1F009709F04BC02DB7E7
:101830003EB7205130400FB6F8943EBF0FBE2DBFCB
:10184000EDB7FEB7319680913D0290913E02ADB763
:10185000BEB712969C938E93119784E890E0938381
:1018600082838091C400848315828091C300868323
:1018700017828091C200808711868091C100828783
:1018800013868091C000848715868091BF0086876B
:1018900017860E94BA2080913D0290913E02FC0181
:1018A000DF010D900020E9F7BD01615070406E1B13
:1018B0007F0BEDB7FEB770960FB6F894FEBF0FBE64
:1018C000EDBF0EC080913D0290913E026CE770E04A
:1018D0000E940B2080913D0290913E0267E070E0F3
:1018E0000E94BF17A0960FB6F894DEBF0FBECDBF03
:1018F000CF91DF911F910F91089580913A0281FF5E
:1019000002C00E94940980913A0282FF10C0809127
:101910003D0290913E0264E770E00E940B208091AE
:101920003D0290913E0267E070E00E94BF1708956B
:10193000DF92EF92FF920F931F93CF93DF938C016F
:10194000EC01DD247E010E94220589938D3011F087
:101950008A3051F4F701108202C00E9422050E94D1
:101960001D058823D1F706C0D394FD2DF43151F71E
:10197000F801148A8D2DDF91CF911F910F91FF9067
:10198000EF90DF900895DF92EF92FF920F931F93F5
:10199000DF93CF93CDB7DEB764970FB6F894DEBF71
:1019A0000FBECDBFDD248E010F5F1F4F64E6E62E14
:1019B00060E0F62E2EC000D000D000D0EDB7FEB70C
:1019C0003196ADB7BEB712961C930E931197F38262
:1019D000E282D48215820E9497208DB79EB7069628
:1019E0000FB6F8949EBF0FBE8DBFC8010E940905B7
:1019F0008D2D90E09C01220F331F46E0880F991F28
:101A00004A95E1F7821B930B865C9E4F0E94980CCF
:101A1000D3942D2D30E040E050E08091BB009091B8
:101A2000BC00A091BD00B091BE00281739074A073D
:101A30005B0708F264960FB6F894DEBF0FBECDBF09
:101A4000CF91DF911F910F91FF90EF90DF9008955C
:101A50002F923F924F925F926F927F928F929F92BE
:101A6000AF92BF92CF92DF92EF92FF920F931F93AC
:101A7000DF93CF93CDB7DEB769970FB6F894DEBF8B
:101A80000FBECDBF02C00E9422050E941D05882303
:101A9000D1F78EE60E94FD0482E191E00E94980C4D
:101AA0008FE60E94FD0486E291E00E94980C81E698
:101AB0000E94FD0435E0E32EF12CEC0EFD1EC70163
:101AC0000E94980C00D000D000D0EDB7FEB7319640
:101AD000ADB7BEB71296FC92EE9211970AE610E0EF
:101AE000138302838BEB90E0958384830E94DD2037
:101AF0008DB79EB706960FB6F8949EBF0FBE8DBFEA
:101B00008091BB009091BC00A091BD00B091BE003F
:101B100085309105A105B105D8F4BB2467012DE6F8
:101B2000422E20E0522E93E7292E90E0392EA02E4F
:101B3000198F7E010894E11CF11C09E710E08FE782
:101B4000882E80E0982EB4E66B2EB0E07B2E07C185
:101B50001092BB001092BC001092BD001092BE000B
:101B600010C100D000D000D0EDB7FEB73196ADB7B0
:101B7000BEB71196CC9211971296DC925382428294
:101B8000B48215820E9497208DB79EB706960FB635
:101B9000F8949EBF0FBE8DBFC6010E940905C60105
:101BA0000E94980CEB2DF0E0CF01880F991F76E092
:101BB000EE0FFF1F7A95E1F7E81BF90BE958FE4F8E
:101BC0008D81808300D000D000D0EDB7FEB7319674
:101BD000ADB7BEB71196CC9211971296DC923382B4
:101BE0002282B48215820E9497208DB79EB70696F6
:101BF0000FB6F8949EBF0FBE8DBFC6010E940905A7
:101C0000C6010E94980C00D000D000D0EDB7FEB7FE
:101C10003196ADB7BEB71196CC9211971296DC9261
:101C2000A282B98DB383F582E4820E94DD20EB2D80
:101C3000F0E0CF01880F991F56E0EE0FFF1F5A9575
:101C4000E1F7E81BF90BE65CFE4F898184AFEDB745
:101C5000FEB73196ADB7BEB71196CC9211971296DA
:101C6000DC9213830283B48215820E9497208DB781
:101C70009EB706960FB6F8949EBF0FBE8DBFC601E5
:101C80000E9409058B2D90E09C01220F331FB6E0C6
:101C9000880F991FBA95E1F7821B930B825B9E4FC9
:101CA0000E94980C00D000D000D0EDB7FEB731965E
:101CB000ADB7BEB71196CC9211971296DC92938273
:101CC0008282B48215820E9497208DB79EB70696B5
:101CD0000FB6F8949EBF0FBE8DBFC6010E940905C6
:101CE0008B2D90E09C01220F331FF6E0880F991F87
:101CF000FA95E1F7821B930B8E599E4F0E94980C28
:101D000000D000D000D0EDB7FEB73196ADB7BEB76A
:101D10001196CC9211971296DC9273826282B482F1
:101D200015820E9497208DB79EB706960FB6F8943D
:101D30009EBF0FBE8DBFC6010E9409058B2D90E08E
:101D40009C01220F331F76E0880F991F7A95E1F7E7
:101D5000821B930B865C9E4F0E94980CB3946B2D54
:101D600070E080E090E02091BB003091BC00409199
:101D7000BD005091BE00621773078407950708F4F1
:101D8000F0CE69960FB6F894DEBF0FBECDBFCF91EF
:101D9000DF911F910F91FF90EF90DF90CF90BF9058
:101DA000AF909F908F907F906F905F904F903F90FB
:101DB0002F9008959C0141505040460F571FDB0162
:101DC00010C0FC91E0E011968C911197BF01680F53
:101DD000711D260F371F2617370710F42F5F3F4F4F
:101DE0001296A417B50768F3A417B50749F49C9198
:101DF00080E0280F391F2817390710F42F5F3F4F55
:101E0000C9010895FC014381460F40933902872F91
:101E100099272281280F20933802A181A0933702AD
:101E200050815093360230E02817390748F48A2F42
:101E30008F5F80933702882319F45F5F50933602D7
:101E4000842F90E070708617970798F4809138027D
:101E50008F5F80933802882361F4809137028F5F0F
:101E600080933702882329F4809136028F5F809314
:101E700036020895BC0180913F029091400208967D
:101E80000E94020FE0913F02F091400280913602E1
:101E90008087809137028187809138028287809184
:101EA00039028387089580E090E068EB72E044E1B6
:101EB00050E00E94DA0E009719F0382F292F02C047
:101EC0002FEF3FEFC9010895CF93DF938091BB02BD
:101ED000C82FD0E064979091BA0280E0C80FD91F54
:101EE000CE01069664EC72E048E050E00E94DA0E03
:101EF0006CEC72E0AE010E94DA0E009719F0382FF8
:101F0000292F02C02FEF3FEFC901DF91CF91089534
:101F100080E009C0E82FF0E0EE0FFF1FE856FD4F0C
:101F2000118210828F5F8330A8F340E08DE190E052
:101F30000DC0242F30E0289FF001299FF00D389F1D
:101F4000F00D1124EF5BFD4F118E4F5F433088F38E
:101F500080E094E09093D0008093CF0020E011C007
:101F6000822F90E0FC01EE0FFF1F33E0880F991FD6
:101F70003A95E1F7E80FF91FEA5FFA4F15821482EC
:101F80002F5F233068F32093CB0008951F93FC014B
:101F90008091CF009091D00001962DE7803092077C
:101FA00010F080E090E1582F492F10E017C0212F4A
:101FB00030E0D901AA0FBB1F220F331F220F331F9E
:101FC000220F331FA20FB31FAA5FBA4F14962D9191
:101FD0003C91159724173507F9F21F5F133039F735
:101FE0009093D0008093CF0040E029C0242F2F5F32
:101FF000842F90E0DC01AA0FBB1F13E0880F991F0C
:102000001A95E1F7A80FB91FAA5FBA4F14968D91E0
:102010009C911597009791F44093CB00842F90E00A
:102020009C01220F331FA3E0880F991FAA95E1F7A7
:10203000280F391F2A5F3A4F49F47EC0422F4330A0
:10204000A8F24093CB0020E030E076C0842F90E0EF
:10205000DC01AA0FBB1F13E0880F991F1A95E1F747
:10206000A80FB91FAA5FBA4F8091CF009091D000FE
:1020700098278927982715969C938E931497842FD9
:1020800090E0DC01AA0FBB1F13E0880F991F1A957F
:10209000E1F7A80FB91FAA5FBA4F17967C936E930A
:1020A0001697309799F4842F90E0FC01EE0FFF1FF4
:1020B000A3E0880F991FAA95E1F7E80FF91FEA5FDF
:1020C000FA4F108211821282138226C0842F90E070
:1020D000DC01AA0FBB1F63E0880F991F6A95E1F727
:1020E000A80FB91FAA5FBA4F808191818D939C93ED
:1020F000842F90E0DC01AA0FBB1F13E0880F991F0B
:102100001A95E1F7A80FB91FAA5FBA4F8281938190
:1021100013969C938E931297842F90E0FC01EE0F00
:10212000FF1F63E0880F991F6A95E1F7E80FF91F19
:10213000EA5FFA4F80E48087C9011F91089540E06B
:1021400013C0E42FF0E0542F5F5FEE0FFF1FE8563F
:10215000FD4F208131812115310529F44093CB00B9
:10216000918380830895452F433058F34093CB00EB
:102170000895EF92FF920F931F93CF93DF93C09137
:102180003F02D0914002843009F4D6C100EE12E043
:1021900010933E0200933D021093350200933402E7
:1021A000833059F4898D8F70833009F0D7C68889C0
:1021B0009989009709F0D2C68DC0823009F08EC08F
:1021C0008091C8008F5F8093C800882399F4809124
:1021D000C7008F5F8093C700882361F48091C60099
:1021E0008F5F8093C600882329F48091C5008F5F9C
:1021F0008093C500109233021092320210920505AE
:1022000010920405898D873011F0853041F48A8D54
:102210008F5F8A8F883709F0A1C6198E9FC68823E1
:1022200009F49CC6288939892115310509F44EC065
:102230009A8D292F21502A8F992309F08FC69B8DC3
:10224000983031F0282F2150223048F4953039F45D
:10225000198E80E880933A020E94290551C5953075
:1022600048F423E030E0092E02C0220F331F0A9405
:10227000E2F701C020E32A8F9F5F9B8F90E08F7071
:10228000907083309105E1F0843091054CF48130F9
:10229000910509F433C38230910509F05FC60DC082
:1022A0008630910509F4C8C48830910509F4C4C486
:1022B0008430910509F052C6BFC41092D90221C3DF
:1022C00084E080933A020E9429054CC58F708330C8
:1022D00009F044C688E080933A0207C5853019F5B5
:1022E000E0913B02F0913C0284819581009709F4D2
:1022F00035C61092400210923F020C5010401093CD
:102300003E0200933D021093350200933402109276
:10231000050510920405109233021092320288E0F3
:1023200080933A0207C1085210408091B802853468
:1023300009F014C69091BA0280E02091BB027C01A2
:10234000E20EF11C80913202909133028E159F05AE
:1023500008F404C6F0923302E09232028091BE0289
:1023600090E08F739070009709F0F8C58091BF02DC
:10237000882309F0F3C58091A6029091A7020097E7
:1023800039F42091A8023091A9022115310549F1B3
:102390002091C102213189F42091C8023091C902F3
:1023A0004FEF2F3F340749F42091CA023091CB02FE
:1023B0006FEF2F3F360709F45BC02091C8023091C0
:1023C000C9022817390709F0C9C52091CA023091FE
:1023D000CB028091A8029091A9022817390709F031
:1023E000BDC50E94530F7FEF8F3F970709F0B6C519
:1023F0008091C102863009F4F4C08131C9F1813085
:1024000009F0ACC5E8EBF2E08091CC02883009F02D
:10241000A5C5148A8091CE029091CF022FEF873FFD
:10242000920710F0099601C00896978B868B8091D1
:10243000C4029091C5029093C9028093C802809112
:10244000C6029091C7029093CB028093CA028091FA
:10245000A6029091A7029093C5028093C402809136
:10246000A8029091A9029093C7028093C6027AC5F0
:10247000C7014C979093330280933202E6E0F5E077
:102480003BC0848195810097B1F12091CE023091BB
:10249000CF022817390779F586819781009739F09F
:1024A0002091CC023091CD022817390721F5808187
:1024B0009181009731F4228133812115310559F43E
:1024C00020C04FEF8F3F940731F4228133816FEFAB
:1024D0002F3F3607B1F02091C4023091C502281772
:1024E000390749F42091C6023091C7028281938155
:1024F0002817390731F03A9675E0E432F70708F209
:1025000029C5F0933C02E0933B02109240021092E6
:102510003F0282E080933A0284ED92E090933E0283
:1025200080933D029093350280933402109205050A
:10253000109204050E943B058091040590910505C9
:10254000009709F40BC59C01245E3F4F3093330282
:1025500020933202E8EBF2E032832383A0913B0226
:10256000B0913C0218962C911897208721E1218781
:102570000896982789279827918F808F138E128E1F
:1025800014968D919C911597958B848B16968D91B1
:102590009C911797978B868B8091A6029091A702AA
:1025A0009093C5028093C4028091A8029091A902E1
:1025B0009093C7028093C6028D919C91119790933E
:1025C000C9028093C80212968D919C9113979093A3
:1025D000CB028093CA02B896F0933E02E0933D028C
:1025E0009DC40E94640FEFEF8F3F9E0709F0B6C4B1
:1025F000C1E4D2E0498D442329F12091CE023091EB
:10260000CF028C819D8128173907E1F42091CC02FB
:102610003091CD028E819F812817390799F420913E
:10262000C4023091C502888199812817390751F475
:102630002091C6023091C7028A819B8128173907F1
:1026400009F475C16D96F2E0C839DF0799F68091FB
:10265000D9028F738230D9F48091CE029091CF024B
:102660009093CA008093C90040E00DC0E42FF0E0D1
:10267000EE0FFF1FE856FD4F208131814F5F82171B
:10268000930709F46EC0433088F34093CB008091E8
:10269000D90282FD63C484E1F80181A388E290E05D
:1026A000909333028093320280E580A38091D3021D
:1026B0009091D702938F3091D2029091D602928F4F
:1026C000368F2091D1029091D502918F258F9091D4
:1026D000D0029093CB004091D402408F948F8F5FB3
:1026E000878F882361F4832F8F5F868F882339F447
:1026F000822F8F5F858F882311F49F5F948F809145
:10270000CC029091CD029093CA008093C900209191
:10271000CE023091CF02F801358B248B978B868BBC
:102720008091C4029091C5029093C9028093C8021F
:102730008091C6029091C7029093CB028093CA0207
:102740008091A6029091A7029093C5028093C40243
:102750008091A8029091A9029093C7028093C6022B
:10276000C9C31092CB0040E0C0E0D0E08DE190E022
:1027700026C0242F30E0289FF001299FF00D389FBC
:10278000F00D1124EF5BFD4F218D222321F44093A6
:10279000CB00EF0118C0273089F4209721F0328D4B
:1027A0002A8D231758F4242F30E0289FE001299F19
:1027B000D00D389FD00D1124CF5BDD4F4F5F4330DC
:1027C000C0F24093CB00209709F4C8C3D0934002D5
:1027D000C0933F0283E08A8F888F1E8A84E08F8BAC
:1027E0001B8E8091CE029091CF029D838C8380912D
:1027F000CC029091CD029F838E838091C4029091F0
:10280000C502998388838091C6029091C7029B83F9
:102810008A8381E0898F8091C5008C878091C60072
:102820008D878091C7008E878091C8008F8781E057
:1028300090E0998B888B8091D3028B878091D20214
:102840008A878091D10289878091D002888781E030
:1028500090E00E943A0F8091D802282F30E0207F2C
:102860003070213531050CF449C082958F7090E0AD
:102870000597880F991F880F991F5091CC0040E051
:1028800034C0F901E655FD4F56A9552329F440936C
:10289000CB001092CC0032C0513011F44F5F25C0F4
:1028A0005230E1F467A96430C9F44093CB005093EF
:1028B000CC0030AD20E081AD90E0822B932B909343
:1028C000CA008093C900F2E083329F0710F082E2D1
:1028D00092E09B8B8A8B9D8B8C8B10C026553D4F35
:1028E000F90127A9222331F0420F242F30E02817C5
:1028F00039073CF24093CB005093CC0080E18093A9
:10290000D902E8EBF2E08091D902826081A382E0F3
:1029100080A794E091A782A782E283A78CE290E04F
:10292000909333028093320280E680A3A1C2D093B9
:102930004002C0933F0210923A028091D90290E087
:1029400082FF03C0198E80E23AC22091D8022295FC
:102950002F70220F220F2093CB00B701621B710949
:102960009B012451304030933302209332024F7048
:10297000423031F4AC014F7350704231510509F1CE
:102980002115310531F49C0123703070211531057A
:10299000C1F03091D0022885321709F05DC2309124
:1029A000D1022985321709F057C23091D2022A8507
:1029B000321709F051C23091D3022B85321709F03A
:1029C0004BC284FF4AC0688979896115710509F491
:1029D00044C0CE010C960E94020F3091D402809127
:1029E00036023817D1F52091D50280913702281789
:1029F000A1F59091D60280913802981771F58091D7
:102A0000D70240913902841741F53C872D879E8774
:102A10008F878B8D8823D1F42E89888D9A8D891B81
:102A2000922F969596959695891B280F2E8B9F89A8
:102A3000392F36953695931B87FD8195980F9F8B7F
:102A4000822F869586958695890F888F81E0809361
:102A50003A02888D8A8F198A188A298D30E0C90137
:102A60008F7090708430910509F4AEC18530910566
:102A700064F48230910591F1833091050CF0B2C07D
:102A80008130910509F06AC211C08630910509F4C0
:102A9000DBC1863091050CF4B7C18730910509F48C
:102AA000DBC18830910509F059C283C180913A0297
:102AB00080FF54C283E0898F80E480933A02198AB0
:102AC000188A8091320290913302009709F409C16B
:102AD00022E420933A020E943A0F03C180913A0205
:102AE00080FF75C08091D9028F73823109F06FC069
:102AF0008091D802282F30E0207F307021353105B9
:102B00000CF449C082958F7090E00597880F991F4B
:102B1000880F991F5091CC0040E034C0F901E65570
:102B2000FD4F56A9552329F44093CB001092CC00B9
:102B300032C0513011F44F5F25C05230E1F467A923
:102B40006430C9F44093CB005093CC0030AD20E00A
:102B500081AD90E0822B932B9093CA008093C900A3
:102B600072E08332970710F082E292E09B8B8A8BAF
:102B70009D8B8C8B10C026553D4FF90127A9222330
:102B800031F0420F242F30E0281739073CF24093F0
:102B9000CB005093CC0083E0898F8091D00288874E
:102BA0008091D10289878091D2028A878091D30255
:102BB0008B8781E090E00E943A0F82E480933A0292
:102BC000198A188A10923302109232028AC080E267
:102BD00080933A020E942905E0913F02F091400261
:102BE000118E55CD8091D90280FF2AC024FD28C0C6
:102BF00088899989009709F0B1C18091320290913A
:102C0000330201960E943A0F20913A02822F80618E
:102C100080933A028091320290913302009719F02A
:102C2000226120933A020E94290581E090E0998B6D
:102C3000888B88E0898F1B8E81E18093D9020FC138
:102C400085FF1CC05091DE0240E08091DF0290E0E1
:102C5000842B952B40913D0250913E02480F591F05
:102C600050933E0240933D02409132025091330214
:102C7000481B590B50933302409332028091320229
:102C800090913302009749F024FD07C020913A0249
:102C9000226020933A020E943A0F9091DA0280E07B
:102CA0002091DB02820F911D9093CA008093C9008E
:102CB0002C893D892817390710F0009721F43093AB
:102CC000CA002093C9008091C9009091CA009B8BD3
:102CD0008A8B80913A0290E083709070009709F49B
:102CE0003DC110920505109204050E9429058091AE
:102CF0003A0285FF07C01092050510920405198E4F
:102D000084E19BCF84FF0AC0109205051092040550
:102D100081E090E0998B888B84E08CCF2091040532
:102D20003091050521153105E1F080FF02C0198AB7
:102D3000188A88899989009781F48A899B898217E2
:102D4000930720F490930505809304058091040572
:102D500090910505998B888B04C09093050580930D
:102D600004051B8E809134029091350290933E02AF
:102D700080933D028091040590910505009759F0DC
:102D800088899989009739F08896909333028093C7
:102D9000320288E10BC080913A0281FFDFC088E2F5
:102DA00090E0909333028093320280E18093D902C5
:102DB0005CC080913A0280FFD1C0198E80E180937F
:102DC0003A020E942905CAC08091320290913302D2
:102DD000009711F00E943A0F9091D90280913A0227
:102DE00090FF0BC080FF06C087E0898F1A8E198A7A
:102DF000188A19C086E0898F16C080FF1EC085E042
:102E0000898F198A188AAAC0809132029091330260
:102E1000009711F00E943A0F8091D90280FF0DC0F7
:102E200087E0898F1A8E81E090E00E943A0F80E15E
:102E300080933A020E9429050FC08091320290913E
:102E40003302009749F48AC080913A0280FF86C01D
:102E500087E0898F1A8E82C080E1F80181A388E221
:102E600090E0909333028093320280E58093D80201
:102E7000E8EBF2E08885848F8985858F8A85868F47
:102E80008B85878F8C85808F8D85818F8E85828FB6
:102E90008F85838F86E081878C819D81958B848B44
:102EA0008E819F81978B868B8091A6029091A7023D
:102EB0009093C5028093C4028091A8029091A902C8
:102EC0009093C7028093C602888199819093C9022A
:102ED0008093C8028A819B819093CB028093CA021F
:102EE000898D84FF03C013A212A204C082E082A3D2
:102EF00082E283A3C8EBD2E080E48887809132022B
:102F0000909133029A838B831FA21EA21DA21CA242
:102F10000E94640F809590959DA38CA3C8EBD2E08E
:102F200085E48093B80219821F821E828091CD00B1
:102F30009091CE0001969093CE008093CD009C831B
:102F40008D831B861A860E94530F809590959B87D0
:102F50008A8708C0F0933C02E0933B021092330250
:102F60001092320210923A02DF91CF911F910F918D
:102F7000FF90EF900895382F292FC9010895AC01D3
:102F80009B011616170684F460930405309305051B
:102F900060913402709135028617970729F0CB01B2
:102FA000BA01A9010E9422200895CF92DF92FF92D8
:102FB0000F931F93CF93DF93DC011092D500FF2472
:102FC0002BE030E046C08F2D90E0829F6001839F10
:102FD000D00C929FD00C1124A6014A525F4FFA01E7
:102FE000C081D181209759F142815381411551050A
:102FF00031F10D911C9111970C171D0701F51296D7
:10300000CD91DC911397C417D507C9F4F092D50080
:10301000F601E652FF4F262F372FD90126E00D90FB
:1030200001922150E1F72BE030E0829FF001839F75
:10303000F00D929FF00D1124EA52FF4F76C0829F4F
:10304000F001839FF00D929FF00D1124EA52FF4F83
:10305000F3948F2D853008F4B6CF40E08BE090E0FC
:1030600016C0242F30E0289FF001299FF00D389FD3
:10307000F00D1124EA52FF4F2081318121153105D5
:1030800029F4228133812115310519F04F5F453034
:1030900040F34093D5004530B1F5F0900D014F2D30
:1030A00050E000E020E030E08BE090E018C0C32F5B
:1030B000D0E0C89FF001C99FF00DD89FF00D1124FA
:1030C000EA52FF4F1285EA01C11BD109E02FF0E05F
:1030D000EC17FD071CF40F2D011B232F3F5F35302C
:1030E00030F300930E0120930F012093D50030E0C0
:1030F0008BE090E0289FF001299FF00D389FF00DA4
:103100001124EA52FF4F8D919D910D90BC91A02DFD
:10311000EF0189939993A993B993862F972FDC0197
:1031200086E00D9009928150E1F780910D01828730
:10313000DF91CF911F910F91FF90DF90CF90089575
:103140001092D5008BE090E012C0242F30E0289F31
:10315000F001299FF00D389FF00D1124EA52FF4F26
:1031600010821182128213824F5F4093D5004091EA
:10317000D500453050F3089580910D018F5F809305
:103180000D011092D5002BE030E023C0862F90E097
:10319000829FF001839FF00D929FF00D1124EA525F
:1031A000FF4F8281938140815181842B952B009721
:1031B00069F080910D0190E04285841B9109883768
:1031C000910524F010821182128213826F5F609346
:1031D000D5006091D5006530C8F208958091320223
:1031E000909133028A32910528F4109233021092A2
:1031F0003202089510923302109232028091BE0280
:103200009091BF0221E08030920731F022E08030BF
:10321000920709F092C075C02091D0023091D1027E
:103220008091A6029091A7022817390709F085C05E
:103230002091D2023091D3028091A8029091A902EC
:103240002817390709F079C086EC92E060EC72E04B
:103250000E94D51780E092E09093BF028093BE0257
:10326000EAECF2E0DF011A9786E00D9001928150BE
:10327000E1F7A0ECB2E0EFEBF0E086E001900D9218
:103280008150E1F7A0EBB2E0EFEBF0E086E00190D7
:103290000D928150E1F7EAEAF2E0DF01909686E0D4
:1032A0000D9001928150E1F78091C6029091C70282
:1032B0009093D1028093D0028091C8029091C9026C
:1032C0009093D3028093D2028091A6029091A7029C
:1032D0009093C7028093C6028091A8029091A902A0
:1032E0009093C9028093C80288E096E09093B70259
:1032F0008093B6028AE290E0909333028093320288
:1033000008952091D0023091D1028091A60290912F
:10331000A7022817390789F42091D2023091D302ED
:103320008091A8029091A9022817390731F486EC00
:1033300092E060EC72E00E94D51708952091C802D7
:103340003091C9024FEF2F3F340791F48091CA02A8
:103350009091CB024FEF8F3F940751F4AAEAB2E06D
:10336000E5E8F0E086E001900D928150E1F7CFC0F2
:103370008091A6029091A702822793274091A202F2
:103380005091A30284239523009791F44091CA029F
:103390005091CB028091A8029091A9028427952791
:1033A0006091A4027091A50286239723009789F06B
:1033B00080919E0290919F029093D2008093D100C1
:1033C0008091A0029091A1029093D4008093D300A9
:1033D00008C03093D2002093D1005093D400409382
:1033E000D3004091D1005091D2002091D300309170
:1033F000D400A0E08BE090E016C06A2F70E0689FD8
:10340000F001699FF00D789FF00D1124EA52FF4FF3
:10341000608171814617570729F4628173812617ED
:10342000370719F0AF5FA53040F3A093D500A53062
:1034300009F065C08AEA92E06FEF70E046E050E084
:103440000E942B20AAECB2E086E0FD0111928A9541
:10345000E9F75A97EFEBF0E086E001900D9281508A
:10346000E1F7A0ECB2E0EFEBF0E086E001900D9226
:103470008150E1F78091D1009091D2009093D102D8
:103480008093D0028091D3009091D4009093D30286
:103490008093D2028091A6029091A7029093C702D6
:1034A0008093C6028091A8029091A9029093C902CC
:1034B0008093C80280E091E09093BF028093BE02A7
:1034C0009093B9028093B80288E090E09093BB0299
:1034D0008093BA0286E08093BC0284E08093BD02B0
:1034E00088E096E09093B7028093B60280EE92E077
:1034F00090933E0280933D028AE290E01CC0AAEACB
:10350000B2E0349686E001900D928150E1F7A0EB95
:10351000B2E0EFEBF0E086E001900D928150E1F730
:1035200088E090E09093B7028093B60280913202D7
:10353000909133020E969093330280933202089555
:10354000A3E1B0E0E6EAFAE10C94821E6C017F8709
:103550006E87FC0117821682838181FD04C06FC3D0
:103560004C855D8504C01E010894211C311CF601A8
:103570009381EE85FF8593FD859193FF8191FF8770
:10358000EE87882309F457C3853241F493FD859172
:1035900093FF8191FF87EE87853259F490E0B60161
:1035A0004A8B5B8B0E946B204A895B895D874C87C5
:1035B000D7CF10E0FF2400E00032B0F48B3269F086
:1035C0008C3228F4803251F0833271F40BC08D328A
:1035D00039F0803349F401602CC00260046029C0D6
:1035E000086027C0006125C007FD2EC0282F20538A
:1035F0002A3098F406FF08C0812F880F182F110F6A
:10360000110F180F120F15C08F2D880FF82EFF0CF9
:10361000FF0CF80EF20E00620CC08E3221F406FD93
:103620000AC3006406C08C3611F4006802C08836F4
:1036300059F4EE85FF8593FD859193FF8191FF8776
:10364000EE87882309F0B8CF982F9554933018F45B
:103650000061805E06C0982F9556933008F09BC19C
:103660000F7E06FF16E06FE3E62EE022853619F4A2
:10367000F0E4EF2A07C0863619F420E8E22A02C0F7
:1036800011111150E7FE06C01C3340F4912E9394A3
:1036900027E00BC0183030F4212F06C027E03CE3B0
:1036A000932E03C027E017E09924CA0104969D8752
:1036B0008C87FA016081718182819381A101092D3A
:1036C0000E940E1F5C016980262D30E0398B288B0B
:1036D00060FE03C0388933FF06C0E1FC06C0E2FE8D
:1036E00006C000E205C00DE203C00BE201C000E02D
:1036F000888999898C7090700097C1F1002311F02E
:1037000084E001C083E08F1558F4F81AE3FC09C087
:1037100080E290E0B6010E946B20FA94C9F701C0E4
:10372000FF24002329F0802F90E0B6010E946B2037
:10373000888983FD03C00DE311E00EC009E311E0A9
:103740000BC0A114B10409F0805290E0B6010E94B0
:103750006B200F5F1F4F05C0AE2CBB2490E1A92248
:10376000BB24F8018491882361F762C2E7FE0EC092
:103770009A0CF889F4FF04C08A81813309F49A9481
:10378000191454F5292D293050F52DC0E6FC2BC015
:10379000812F90E08A159B054CF03CEFA3163FEF7C
:1037A000B30624F080E8E82A01C01150112349F043
:1037B000E2E0F0E0EC0FFD1FE10FF11D80818033AE
:1037C000A1F3E7FE10C0912E9394812F90E0A816EC
:1037D000B90644F41A1907C09924939404C098E0D8
:1037E000992E01C010E0E7FE07C01A141B043CF438
:1037F00095012F5F3F4F05C025E030E002C021E07A
:1038000030E0002311F02F5F3F4F112329F0812F6B
:1038100090E00196280F391F8F2D90E02817390767
:1038200014F4F21A01C0FF244E2C5524C2018970F1
:103830009070009749F406C080E290E0B6010E94C3
:103840006B20FA94FF20C1F7002329F0802F90E02D
:10385000B6010E946B2043FC09C006C080E390E0E3
:10386000B6010E946B20FA94FF20C1F7E7FE46C024
:103870003501B7FE02C06624772425010894411C57
:10388000511C46185708420C531CF501E919F1095F
:103890004F01812F90E000271127081B190BFFEF24
:1038A0006F16FFEF7F0629F48EE290E0B6010E94CA
:1038B0006B20A614B70434F0861497041CF4F201AC
:1038C000808101C080E30894610871080894411C5C
:1038D000511C601671062CF090E0B6010E946B201E
:1038E000DECF6A147B0441F49A81963320F4953339
:1038F00019F4F889F4FF81E390E049C08A818133AB
:1039000011F02FEE622290E0B6010E946B2011238D
:1039100089F08EE290E0B6010E946B2002E0F10196
:10392000E00FF11D0F5F808190E0B6010E946B20D7
:103930001150A9F744FE03C085E490E002C085E67B
:1039400090E0B6010E946B20B7FC05C0A114B10441
:1039500041F464FE06C0B094A194B108B3948DE222
:1039600001C08BE290E0B6010E946B2080E305C0AD
:103970008F5FE6EFFFEFAE0EBF1EFAE0AF16B104A9
:10398000BCF790E0B6010E946B20C501C096B6015D
:103990000E946B204DC1833631F0833789F0833527
:1039A00009F059C022C09A012E5F3F4F3D872C87F6
:1039B000FA0180818983310181E0A82EB12C13C0E6
:1039C0009A012E5F3F4F3D872C87FA0160807180FE
:1039D00006FF03C0612F70E002C06FEF7FEFC301ED
:1039E0000E9439205C010F7714C09A012E5F3F4F6F
:1039F0003D872C87FA016080718006FF03C0612F2C
:103A000070E002C06FEF7FEFC3010E9412205C01E3
:103A1000006803FD1CC006C080E290E0B6010E9471
:103A20006B20FA948F2D90E0A816B906A8F30FC06A
:103A3000F30107FD859107FF81913F0190E0B601F9
:103A40000E946B20F110FA940894A108B108A11407
:103A5000B10471F7EDC0843611F0893661F507FFC6
:103A60000BC09A012C5F3F4F3D872C87FA01608184
:103A70007181828193810CC09A012E5F3F4F3D87F7
:103A80002C87FA0160817181882777FD8095982FB6
:103A90000F7697FF08C090958095709561957F4F40
:103AA0008F4F9F4F0068A1012AE030E00E94F7206D
:103AB000982E921841C0853721F40F7E2AE030E01D
:103AC00020C0097F8F36A9F0803720F4883509F0AF
:103AD000B2C00BC0803721F0883709F0ACC001C0FC
:103AE000006104FF09C0046007C004FF08C006604D
:103AF00006C028E030E005C020E130E002C020E14F
:103B000032E007FF0AC0CA0104969D878C87FA013C
:103B1000608171818281938109C0CA0102969D876B
:103B20008C87FA016081718180E090E0A1010E94A0
:103B3000F720982E92180F7706FF09C00E7F911676
:103B400030F404FF06C002FD04C00F7E02C0E92C61
:103B500001C0E12E802F90E004FF0CC0FE01E90DB2
:103B6000F11D2081203311F4097E09C0E39402FF86
:103B700006C004C086789070009709F0E394A02EE8
:103B8000BB2403FD14C000FF0FC0EF1428F4192D4F
:103B90001F0D1E19EF2C08C0192D06C080E290E001
:103BA000B6010E946B20E394EF14C0F304C0EF143D
:103BB00010F4FE1801C0FF24A4FE0FC080E390E0C3
:103BC000B6010E946B20A2FE1FC0A1FE03C088E5C3
:103BD00090E010C088E790E00DC0C5018678907035
:103BE000009791F0A1FC02C080E201C08BE207FDCA
:103BF0008DE290E0B6010E946B2006C080E390E069
:103C0000B6010E946B2011509116C0F39A94F101F5
:103C1000E90DF11D808190E0B6010E946B20992092
:103C2000A9F706C080E290E0B6010E946B20FA94EA
:103C3000FF20C1F795CCF6012681378102C02FEF16
:103C40003FEFC9016396E2E10C949E1E629FD00192
:103C5000739FF001829FE00DF11D649FE00DF11D47
:103C6000929FF00D839FF00D749FF00D659FF00DF6
:103C70009927729FB00DE11DF91F639FB00DE11DE3
:103C8000F91FBD01CF0111240895A1E21A2EAA1B2C
:103C9000BB1BFD010DC0AA1FBB1FEE1FFF1FA217FC
:103CA000B307E407F50720F0A21BB30BE40BF50BF9
:103CB000661F771F881F991F1A9469F76095709582
:103CC000809590959B01AC01BD01CF01089597FBB4
:103CD000092E05260ED057FD04D0D7DF0AD0001CD0
:103CE00038F450954095309521953F4F4F4F5F4F99
:103CF0000895F6F790958095709561957F4F8F4F59
:103D00009F4F08952F923F924F925F926F927F92B2
:103D10008F929F92AF92BF92CF92DF92EF92FF92DB
:103D20000F931F93CF93DF93CDB7DEB7CA1BDB0B87
:103D30000FB6F894DEBF0FBECDBF09942A8839882C
:103D400048885F846E847D848C849B84AA84B98433
:103D5000C884DF80EE80FD800C811B81AA81B9813F
:103D6000CE0FD11D0FB6F894DEBF0FBECDBFED0153
:103D70000895A0E0B0E0EFEBFEE10C948A1EEC01A8
:103D8000688179818A819B81611571058105910521
:103D900021F464E279ED8BE597E02DE133EF41E02A
:103DA00050E00E94671E79018A0127EA31E440E071
:103DB00050E00E94261E5B016C01C801B7012CEE89
:103DC00034EF4FEF5FEF0E94261E9B01AC012A0DDE
:103DD0003B1D4C1D5D1D57FF04C02150304040402D
:103DE0005048288339834A835B835F77B901CA01CE
:103DF000CDB7DEB7EAE00C94A61E0E94B91E089566
:103E00008BE890E00E94B91E089560938B00709338
:103E10008C0080938D0090938E000895283008F0D8
:103E200027E03327DA01990F311D87FD9160009655
:103E30006105710539F432602E5F3D9330E32A95B8
:103E4000E1F708959F3F30F080387105610509F072
:103E50003C5F3C5F3D93913008F08068911DDF939B
:103E6000CF931F930F93FF92EF92192F987F969500
:103E7000E92F96959695E90FFF27E556FE4F99276E
:103E80003327EE24FF24A701E70105900894079447
:103E900028F4360FE71EF81E491F511D660F771FC5
:103EA000881F991F0694A1F70590079428F4E70E40
:103EB000F81E491F561FC11D770F881F991F661FC7
:103EC0000694A1F70590079428F4F80E491F561F91
:103ED000C71FD11D880F991F661F771F0694A1F772
:103EE0000590079420F4490F561FC71FD81F990F3C
:103EF000661F771F881F0694A9F784911095177085
:103F000041F0D695C79557954795F794E7941A953C
:103F1000C1F7E1E4F1E06894159015913591659150
:103F2000959105907FE27395E118F10A430B560BCA
:103F3000C90BD009C0F7E10CF11E431F561FC91F62
:103F4000D01D7EF4703311F48A95E6CFE8940150C9
:103F500030F0080F0AF40027021708F4202F2395E9
:103F6000022F7A3328F079E37D932A95E9F710C080
:103F70007D932A9589F606949795679537951795B9
:103F80001794E118F10A430B560BC90BD00998F0AE
:103F900023957E9173957A3308F070E37C93201318
:103FA000B8F77E9170617D9330F0839571E37D93D6
:103FB00070E32A95E1F71124EF90FF900F911F9184
:103FC000CF91DF91992787FD90950895FB01DC0142
:103FD00002C005900D9241505040D8F70895FB0162
:103FE000DC018D9181341CF08B350CF4805E659181
:103FF00061341CF06B350CF4605E861B611189F333
:10400000990B0895FB01DC018D9105908019011039
:10401000D9F3990B0895FB01DC0105900D92002066
:10402000E1F70895FC010590615070400110D8F748
:10403000809590958E0F9F1F089540E151E00E945A
:1040400044200895FB01DC0102C001900D92415013
:104050005040D8F70895DC0101C06D9341505040A5
:10406000E0F70895FB01DC0101900D920020E1F7DB
:104070000895FC016150704001900110D8F78095BF
:1040800090958E0F9F1F0895FA01A191B08100971E
:1040900019F41097E1F0CD01DC01CD010D90002065
:1040A00011F4C00113C0FB012191222319F0201546
:1040B000D9F7F3CFFB012191201519F41E92119627
:1040C00006C02223C1F70D900020A1F7D001FA010C
:1040D000A193B08308950F931F93CF93DF938C0127
:1040E000EB018B8181FF1BC082FF0DC02E813F81C0
:1040F0008C819D812817390764F4E881F981019347
:10410000F983E88306C0E885F985802F0995009733
:1041100031F48E819F8101969F838E8302C00FEFC1
:104120001FEFC801DF91CF911F910F910895AEE06D
:10413000B0E0EDE9F0E20C94901E0D891E8986E056
:104140008C831A8309838FEF9FE79E838D839E0163
:10415000275E3F4FCE0101966F89788DA9010E949D
:10416000A01AEF81F885E00FF11F10822E96E4E08F
:104170000C94AC1EAEE0B0E0E0ECF0E20C94901ECB
:104180000D891E898EE08C831A8309838FEF9FE748
:104190009E838D839E01275E3F4FCE0101966F89DE
:1041A000788DA9010E94A01AEF81F885E00FF11F18
:1041B00010822E96E4E00C94AC1EAEE0B0E0E3EE8C
:1041C000F0E20C94921E85E08C838B899C899A8303
:1041D00089839E01295E3F4FCE0101966D897E89BC
:1041E000A9010E94EA222E96E2E00C94AE1EFA018A
:1041F000AA27283051F1203181F1E8946F936E7F26
:104200006E5F7F4F8F4F9F4FAF4FB1E03ED0B4E016
:104210003CD0670F781F891F9A1FA11D680F791F57
:104220008A1F911DA11D6A0F711D811D911DA11D68
:1042300020D009F468943F912AE0269F1124301978
:10424000305D3193DEF6CF010895462F4770405D13
:104250004193B3E00FD0C9F7F6CF462F4F70405DC2
:104260004A3318F0495D31FD4052419302D0A9F71D
:10427000EACFB4E0A6959795879577956795BA9517
:10428000C9F700976105710508959B01AC010A2EDD
:1042900006945795479537952795BA95C9F7620FB4
:1042A000731F841F951FA01D089520FD09C0FC01E8
:1042B00023FD05C022FF02C07383628351834083C4
:1042C0000895EF92FF920F931F9344FD10C046FD97
:1042D00010C0DB01FC01AA0FBB1FEE1FFF1F1094D3
:1042E000D1F76A0F7B1F8E1F9F1F31E003C033E0A1
:1042F00001C034E0660F771F881F991F3150D1F736
:104300007B018C01E20EF11C011D111DA80197011A
:10431000B701CA011F910F91FF90EF900895EF929E
:10432000FF920F931F93CF93DF938C01C8010E94DC
:104330002424EC0197FD09C00E9411240097B1F7D5
:104340007E01CE01B8010E946624CE01CDB7DEB752
:10435000E6E00C94AA1E8F929F92AF92BF92DF92DA
:10436000EF92FF920F931F93DF93CF930F92CDB7EE
:10437000DEB74C01D62E5A01122F0E9424248B3214
:1043800019F08D3249F41068DA9409F46CC0C40154
:104390000E94242497FD67C0312F3D7F232F207377
:1043A000F1F48033E1F4DA9409F448C0C4013983AC
:1043B0000E942424398197FD41C03260883711F072
:1043C000883559F43064DA94C9F1C40139830E9404
:1043D0002424398197FF03C031C036FF3061EE24B9
:1043E000FF248701282F2053283090F034FD09C086
:1043F0002A3070F036FF05C02F7D422F41514630E4
:1044000030F0B40139830E946624398114C02750EA
:10441000C801B701432F39830E9461217B018C01C0
:1044200039813260DA9469F0C40139830E9424240E
:10443000398197FFD7CF31FD04C015C0EE24FF248A
:10444000870137FF08C010950095F094E094E11CB7
:10445000F11C011D111DC501B801A701232F0E94E8
:10446000552181E001C080E00F90CF91DF911F9135
:104470000F91FF90EF90DF90BF90AF909F908F9043
:104480000895A1E2B0E0E7E4F2E20C94861E6C012C
:104490008A0179019E012F5F3F4F80E2F90111925D
:1044A0008A95E9F7F601838080E090E0BB249924A7
:1044B00070E0A1E0B0E0F70183FCA59083FEA1903D
:1044C0007F01AA2009F47FC0FA2DFE3511F4009770
:1044D00051F1472F50E04817590744F44A2D4D3504
:1044E00051F14D3219F4992001F103C0992009F4DA
:1044F000BA2C4A2D469546954695F901E40FF11DD3
:104500004A2D47703D0102C0660C771C4A95E2F7C0
:10451000908096289082AB1459F0AB1410F4A394B9
:10452000E8CFAA94E6CF71E004C09924939401C027
:1045300099240196C0CF992019F08E8180628E83D4
:10454000772351F0CE018196FE013196208120958E
:104550002193E817F907D1F7BB24B3944E010894CF
:10456000811C911C01C0BB24C60169A30E942424A4
:1045700069A197FD20C0282F269526952695F40140
:10458000E20FF11D208130E0AC014770507002C095
:10459000359527954A95E2F720FD04C0B6010E94A3
:1045A000662409C00115110519F0F80181938F01E6
:1045B0006150C9F602C0BB2031F40115110529F084
:1045C000F801108202C0EE24FF24C701A196EEE09C
:1045D0000C94A21E4F925F926F927F929F92AF9225
:1045E000BF92CF92DF92EF92FF920F931F93DF93D0
:1045F000CF930F92CDB7DEB77C016B013A01FC017E
:104600001782168200E0E9C0812F90E00E941124F9
:10461000009721F0C7010E948F21DFC0153241F4BD
:10462000F601A3FC3591A3FE31916F01353261F49F
:10463000C7010E94242497FDDCC0181709F4CDC0DF
:10464000B7010E946624D7C03A3239F4A3FC3591F1
:10465000A3FE31916F0111E001C010E099240FC059
:104660001260692D70E080E090E040E20E946121DC
:10467000962EF601A3FC3591A3FE31916F01232FF5
:1046800020532A3068F311FF03C0992019F4B3C0F6
:1046900099249A94383619F03C3689F409C0F60109
:1046A000A3FC3591A3FE31916F01383641F41860B7
:1046B0001460F601A3FC3591A3FE31916F01332301
:1046C00009F499C08BE392E0632F70E039830E9474
:1046D00019243981009709F48EC0812F10FD08C07C
:1046E000F3014080518042E050E0640E751E02C02C
:1046F000442455243E3651F4F7014681578160E049
:1047000070E0C201212F0E94552167C0333691F419
:1047100081FD02C099249394C7010E94242497FD2F
:1047200068C04114510419F0F20181932F019A9449
:1047300099F751C03B3559F4C701692DA201960183
:104740000E9441226C01009709F045C03FC0C7019B
:1047500039830E948F21398197FD4BC03F3659F133
:10476000303728F4343629F1393639F527C0333754
:1047700019F0353711F51DC0C7010E9424245C01D2
:1047800097FD11C00E941124009729F0C501B701BF
:104790000E94662408C04114510419F0F201A1924C
:1047A0002F019A9449F741145104A9F0F2011082A3
:1047B00012C0106203C0106101C01064C701692DEE
:1047C000A201212F0E94AB21882329F4F7018381C4
:1047D000807379F410C010FF0F5FF701A380F6011A
:1047E000A3FC1591A3FE11916F01112309F00CCFC9
:1047F00002C0002311F010E002C00FEF1FEFC8014C
:104800000F90CF91DF911F910F91FF90EF90DF906C
:10481000CF90BF90AF909F907F906F905F904F90A0
:10482000089591116EC0803219F089508550D0F7EB
:104830000895FC010590061621F00020D9F7C0016B
:1048400008953197CF010895CF93DF93EC013B8119
:1048500030FF36C036FF09C03F7B3B838E819F818E
:1048600001969F838E832A8129C032FF0FC0E88181
:10487000F9818081992787FD9095009719F430621E
:104880003B831EC03196F983E88311C0EA85FB851E
:10489000CE01099597FF0BC02B813FEF8F3F930708
:1048A00011F480E101C080E2822B8B8309C02E814C
:1048B0003F812F5F3F4F3F832E83282F30E002C080
:1048C0002FEF3FEFC901DF91CF910895FB012381C5
:1048D00020FF13C026FD11C03FEF8F3F930769F003
:1048E000828320642F7D23832681378121503040AD
:1048F00037832683282F30E002C02FEF3FEFC90116
:0C4900000895992788270895F894FFCFA8
:10490C00200D0A00772530325800255800662530D6
:10491C003258007425303258006D253032580078EA
:10492C002530325800FFFFFFFFFFFF0100000000A1
:00000001FF
