:100000000C94B0000C94CD000C94CD000C94CD0059
:100010000C94CD000C94CD000C94CD000C94CD002C
:100020000C94CD000C94CD000C94CD000C940B04DA
:100030000C94CD000C94CD000C94CD000C94CD000C
:100040000C94CD000C94CD000C94CD000C94CD00FC
:100050000C94CD007549503A20007463703A2067C3
:100060006F742072657365742C2061626F7274699D
:100070006E6720636F6E6E656374696F6E2E0074B9
:1000800063703A20666F756E64206E6F20756E75B2
:1000900073656420636F6E6E656374696F6E732E33
:1000A000007463703A2062616420636865636B73F7
:1000B000756D2E0069636D703A206E6F74206963F0
:1000C0006D70206563686F2E0069703A206E6569F7
:1000D0007468657220746370206E6F722069636D3E
:1000E000702E0069703A2062616420636865636BFA
:1000F00073756D2E0069703A20667261676D656E6A
:10010000742064726F707065642E0069703A20709C
:1001100061636B65742073686F72746572207468B4
:10012000616E207265706F7274656420696E20491B
:1001300050206865616465722E0069703A20696EAE
:1001400076616C69642076657273696F6E206F7278
:1001500020686561646572206C656E6774682E0046
:1001600011241FBECFE5D8E0DEBFCDBF10E0A0E672
:10017000B0E0ECE6FCE102C005900D92A837B107B3
:10018000D9F713E0A8E7B0E001C01D92A831B1078C
:10019000E1F70E94CF000C94340E0C9400008F9273
:1001A0009F92AF92BF92CF92DF92EF92FF920F9306
:1001B0001F93CF93DF930E9449040E94320480E68C
:1001C00090E00E94E2020E941F050E942D0CAFE702
:1001D000B0E0E0E6F0E086E001900D928150E1F7BA
:1001E0003091680020E08091690090E0822B932B91
:1001F000582F492F3091660020E08091670090E0F1
:10020000822B932B9827892798279093810180939D
:10021000800150938301409382013091700020E06F
:100220008091710090E0822B932B582F492F3091B1
:100230006E0020E080916F0090E0822B932B982736
:100240008927982790937D0180937C0150937F01AB
:1002500040937E0130916C0020E080916D0090E031
:10026000822B932B582F492F30916A0020E08091E8
:100270006B0090E0822B932B9827892798279093E7
:1002800079018093780150937B0140937A010E9419
:100290006F04EE24FF248701AA24BB2465018DE1AD
:1002A000882E912C84E891E060E971E00E948E0331
:1002B0009093D1008093D000009759F180919001E4
:1002C000909191018830910589F481E00E94480560
:1002D0008091D0009091D100009709F44FC00E9406
:1002E0002B0D6091D0007091D1000EC026E08830B7
:1002F000920709F043C00E947B0C6091D00070917E
:10030000D10061157105D1F184E891E00E944503A7
:1003100035C00E943B046A197B098C099D0963332F
:1003200071058105910550F10E943B045B016C0150
:10033000C0E0D0E0C89DC001C99D900DD89D900D32
:10034000112483529F4F9093DC008093DB0082E066
:100350000E9448058091D0009091D100009751F003
:100360000E942B0D6091D0007091D10084E891E043
:100370000E9445032196C530D105E1F60E943B0459
:100380006E197F09800B910B693E23E0720720E014
:10039000820720E0920708F485CF0E943B047B018E
:1003A0008C010E94490C7ECFCF93DF93EC0184E552
:1003B00090E00E945E04CE010E945E048AE00E94EA
:1003C0005204DF91CF910895C4980895C49A089576
:1003D0000E94E4018FEF8FB9779BFECF0E94E60168
:1003E00008950F931F93CF93DF93EC018B010E942D
:1003F000E4018AE38FB9779BFECF07C01FB8779BD4
:10040000FECF8FB189930150104001151105B1F74E
:100410000E94E601DF91CF911F910F9108950F93F4
:100420001F93CF93DF93EC018B010E94E4018AE7D5
:100430008FB9779BFECF06C089918FB9779BFECF8E
:100440000150104001151105B9F70E94E601DF9136
:10045000CF911F910F9108951F93DF93CF930F9228
:10046000CDB7DEB7182F69830E9448020E94E401CD
:100470001F71106A1FB96981779BFECF6FB9779B97
:10048000FECF0E94E6010F90CF91DF911F9108955A
:10049000282F30E0A9014F7150704B315105BCF449
:1004A00040917A0050E0207630704217530779F07F
:1004B000807680937A008FE163E00E942C02609145
:1004C0007A006295669567708FE10E9468020895D0
:1004D0001F93DF93CF930F92CDB7DEB7182F6983A9
:1004E0000E9448020E94E4011F7110681FB96981CF
:1004F000779BFECF6FB9779BFECF0E94E6010F90EE
:10050000CF91DF911F9108951F93DF93CF930F92A7
:10051000CDB7DEB7182F69830E9448020E94E4011C
:100520001F7110641FB96981779BFECF6FB9779BEC
:10053000FECF0E94E6010F90CF91DF911F910895A9
:100540001F93DF93CF930F92CDB7DEB7182F0E9482
:1005500048020E94E401812F8F718FB9779BFECFF3
:100560001FB8779BFECF17FF03C01FB8779BFECF46
:100570008FB189830E94E60189810F90CF91DF912D
:100580001F9108951F93DF93CF930F92CDB7DEB7DE
:10059000982F162F84ED692F79830E94840286EDAF
:1005A000612F0E94840287ED7981672F0E94840267
:1005B0008AEE0E94A00280FDFBCF0F90CF91DF91C9
:1005C0001F910895CF93DF93EC0187B3806B87BBB6
:1005D000BE98709A8DB180658DB90E94E8018FE94F
:1005E0009FE00197F1F700C0000088E060E00E9402
:1005F000840289E060E00E9484028AE06FEF0E943A
:1006000084028BE069E10E94840280EC6DE00E942C
:10061000680281EC60E80E942C0282EC63E30E9495
:1006200068028AEC64E90E9484028BEC61E00E941B
:10063000840284EC65E10E94840286EC62E10E94FF
:10064000840284EE68810E94840285EE69810E94A2
:10065000840282EE6A810E94840283EE6B810E9492
:10066000840280EE6C810E94840281EE6D810E9482
:10067000840280E060E071E00E94C2028FE164E0E9
:100680000E946802DF91CF910895EF92FF920F933D
:100690001F93DF93CF930F92CDB7DEB77C018B0111
:1006A00019828FE10E94A00283FDFBCF84E060E00D
:1006B0000E94840285E06AE10E94840282E060E098
:1006C0000E94840283E06AE10E948402CE010196C6
:1006D00061E070E00E940F02C701B8010E940F02A2
:1006E0000050164E86E0602F0E94840287E0612F42
:1006F0000E9484028CE168E00E942C028BE168E099
:100700000E9468028FE168E00E9468020F90CF911A
:10071000DF911F910F91FF90EF900895AF92BF92DC
:10072000CF92DF92EF92FF920F931F93DF93CF93BD
:1007300000D000D000D0CDB7DEB75C016B0189E3FB
:100740000E94A002882309F452C0609178000091B1
:10075000790080E00E94840281E0602F0E94840280
:10076000CE01019666E070E00E94F1019A8180E07E
:10077000E980FF24E82AF92AF0927900E0927800D3
:100780009C8180E00B8110E0082B192B0450104055
:10079000C016D10608F48601C501B8010E94F10116
:1007A00088E00E94A002C82E89E00E94A002382F93
:1007B00020E08C2D90E0822B932BE816F90639F47B
:1007C0008CE06FEF0E9484028DE069E109C008941B
:1007D000E108F1088CE06E2D0E9484028DE06F2DFF
:1007E0000E9484028EE160E40E94680202C000E080
:1007F00010E0C80126960FB6F894DEBF0FBECDBF3D
:10080000CF91DF911F910F91FF90EF90DF90CF90EC
:10081000BF90AF9008951F920F920FB60F921124C0
:100820008F939F93AF93BF9380917B0090917C00B7
:10083000A0917D00B0917E000196A11DB11D809315
:100840007B0090937C00A0937D00B0937E0084E6B3
:1008500082BFBF91AF919F918F910F900FBE0F906C
:100860001F90189584E682BF83B7856083BF89B7E0
:10087000816089BF08958FB7F89420917B003091F3
:100880007C0040917D0050917E008FBFB901CA016C
:10089000089588E18AB910BC87E689B9599886E835
:1008A00080BD08951F93182F8A3019F48DE00E949F
:1008B00052045D9BFECF1CB91F910895CF93DF9327
:1008C000EC0105C02196FC0184910E945204CE01E6
:1008D000FE0124912223B1F7DF91CF91089508956D
:1008E00008959C0141505040460F571FDB0110C036
:1008F000FC91E0E011968C911197BF01680F711D7A
:10090000260F371F2617370710F42F5F3F4F129619
:10091000A417B50768F3A417B50749F49C9180E0C4
:10092000280F391F2817390710F42F5F3F4FC901CF
:100930000895FC014381460F4093D700872F9927E4
:100940002281280F2093D600A181A093D500508149
:100950005093D40030E02817390748F48A2F8F5F6E
:100960008093D500882319F45F5F5093D400842FBF
:1009700090E070708617970798F48091D6008F5F8B
:100980008093D600882361F48091D5008F5F809397
:10099000D500882329F48091D4008F5F8093D40000
:1009A0000895BC018091DB009091DC0008960E94C4
:1009B0009904E091DB00F091DC008091D400808705
:1009C0008091D50081878091D60082878091D70061
:1009D0008387089580E090E062E971E044E150E0AF
:1009E0000E947104009719F0382F292F02C02FEFB1
:1009F0003FEFC9010895CF93DF9380919501C82FF0
:100A0000D0E064979091940180E0C80FD91FCE0187
:100A100006966EE971E048E050E00E94710466EAD3
:100A200071E0AE010E947104009719F0382F292F50
:100A300002C02FEF3FEFC901DF91CF91089580E011
:100A400009C0E82FF0E0EE0FFF1FE259FE4F1182C0
:100A500010828F5F8530A8F340E08DE190E00DC0FB
:100A6000242F30E0289FF001299FF00D389FF00DD2
:100A70001124E352FF4F118E4F5F453088F34093AE
:100A80008B0080E094E09093900080938F00089515
:100A9000EF92FF920F931F93CF93DF93C091DB00F0
:100AA000D091DC000AEB11E01093DA000093D9003A
:100AB0001093D3000093D200833059F4898D8F7046
:100AC000833009F0F2C588899989009709F0EDC54E
:100AD0008DC0823009F08EC0809188008F5F809336
:100AE0008800882399F4809187008F5F8093870026
:100AF000882361F4809186008F5F8093860088232D
:100B000029F4809185008F5F809385001092D10039
:100B10001092D0001092170310921603898D87301F
:100B200011F0853041F48A8D8F5F8A8F883709F004
:100B3000BCC5198EBAC5882309F4B7C52889398977
:100B40002115310509F44EC09A8D292F21502A8F85
:100B5000992309F0AAC59B8D983031F0282F215098
:100B6000223048F4953039F4198E80E88093D8000B
:100B70000E94700472C4953048F423E030E0092EDE
:100B800002C0220F331F0A94E2F701C020E32A8F2C
:100B90009F5F9B8F90E08F70907083309105E1F0A4
:100BA000843091054CF48130910509F44FC28230B4
:100BB000910509F07AC50DC08630910509F4E9C3A5
:100BC0008830910509F4E5C38430910509F06DC5BD
:100BD000E0C31092B3013DC284E08093D8000E942C
:100BE00070046DC48F70833009F05FC588E0809316
:100BF000D80028C40852104080919201853419F021
:100C00008AE391E01DC09091940180E020919501CC
:100C10007C01E20EF11C8091D0009091D1008E15E4
:100C20009F0560F0F092D100E092D0008091980191
:100C300090E08F739070009731F009C08BE091E0E5
:100C40000E94D40132C580919901882319F085EF63
:100C500090E0F6CF8091800190918101009739F466
:100C6000209182013091830121153105A1F020915D
:100C7000A2013091A3012817390709F016C5209168
:100C8000A4013091A50180918201909183012817E0
:100C9000390709F00AC50E94EA042FEF8F3F920737
:100CA00019F083EE90E0CCCF80919B018630E9F182
:100CB000813019F089EC90E0C3CFE2E9F1E0809156
:100CC000A601883019F084EB90E0BACF148A8091A5
:100CD000A8019091A9016FEF873F960710F0099640
:100CE00001C00896978B868B80919E0190919F0101
:100CF0009093A3018093A2018091A0019091A10102
:100D00009093A5018093A40180918001909181012D
:100D100090939F0180939E01809182019091830125
:100D20009093A1018093A001C4C40E94FB047FEFB3
:100D30008F3F970719F081EA90E082CFCDEDD0E0A8
:100D4000498D442329F12091A8013091A9018C817A
:100D50009D8128173907E1F42091A6013091A70160
:100D60008E819F812817390799F420919E01309137
:100D70009F01888199812817390751F42091A0019A
:100D80003091A1018A819B812817390709F478C124
:100D90006D9681E0CE36D80799F68091B3018F73B6
:100DA0008230D9F48091A8019091A90190938A0092
:100DB0008093890040E00DC0E42FF0E0EE0FFF1FAC
:100DC000E259FE4F208131814F5F8217930709F46A
:100DD0006EC0453088F340938B008091B30182FD53
:100DE00064C484E1F80181A388E290E09093D1008B
:100DF0008093D00080E580A38091AD019091B101F6
:100E0000938F3091AC019091B001928F368F2091E9
:100E1000AB019091AF01918F258F9091AA01909392
:100E20008B004091AE01408F948F8F5F878F882316
:100E300061F4832F8F5F868F882339F4822F8F5F31
:100E4000858F882311F49F5F948F8091A6019091E4
:100E5000A70190938A00809389002091A801309186
:100E6000A901F801358B248B978B868B80919E018D
:100E700090919F019093A3018093A2018091A00182
:100E80009091A1019093A5018093A401809180018C
:100E90009091810190939F0180939E0180918201A6
:100EA000909183019093A1018093A001D0C31092EF
:100EB0008B0040E0C0E0D0E08DE190E026C0242F20
:100EC00030E0289FF001299FF00D389FF00D11248C
:100ED000E352FF4F218D222321F440938B00EF0139
:100EE00018C0273089F4209721F0328D2A8D2317DE
:100EF00058F4242F30E0289FE001299FD00D389F1F
:100F0000D00D1124C352DF4F4F5F4530C0F24093E4
:100F10008B00209719F48FE790E092CED093DC00FD
:100F2000C093DB0083E08A8F888F1E8A84E08F8BDA
:100F30001B8E8091A8019091A9019D838C83809143
:100F4000A6019091A7019F838E8380919E0190912D
:100F50009F01998388838091A0019091A1019B8337
:100F60008A8381E0898F809185008C8780918600BB
:100F70008D87809187008E87809188008F8781E0A0
:100F800090E0998B888B8091AD018B878091AC012B
:100F90008A878091AB0189878091AA01888781E047
:100FA00090E00E94D1048091B201282F30E0207F90
:100FB0003070213531050CF449C082958F7090E076
:100FC0000597880F991F880F991F50918C0040E05A
:100FD00034C0F901EC57FE4F56A9552329F440932C
:100FE0008B0010928C0032C0513011F44F5F25C03D
:100FF0005230E1F467A96430C9F440938B005093F8
:101000008C0030AD20E081AD90E0822B932B90934B
:101010008A0080938900F1E08B359F0710F08AE504
:1010200091E09B8B8A8B9D8B8C8B10C02C573E4FF5
:10103000F90127A9222331F0420F242F30E028178D
:1010400039073CF240938B0050938C0080E18093F1
:10105000B301E2E9F1E08091B301826081A382E013
:1010600080A784E081A781E082A78AE583A78CE23C
:1010700090E09093D1008093D00080E680A3A5C239
:10108000D093DC00C093DB001092D8008091B301B4
:1010900090E082FF07C0198E8AE590E00E94D4019B
:1010A00080E23AC22091B20122952F70220F220FC6
:1010B00020938B00B701621B71099B0124513040C2
:1010C0003093D1002093D0004F70423031F4AC0106
:1010D0004F7350704231510509F12115310531F43A
:1010E0009C012370307021153105C1F03091AA01A7
:1010F0002885321709F05DC23091AB01298532177E
:1011000009F057C23091AC012A85321709F051C25B
:101110003091AD012B85321709F04BC284FF4AC0D4
:10112000688979896115710509F444C0CE010C966E
:101130000E9499043091AE018091D4003817D1F506
:101140002091AF018091D5002817A1F59091B001B1
:101150008091D600981771F58091B1014091D70028
:10116000841741F53C872D879E878F878B8D882339
:10117000D1F42E89888D9A8D891B922F96959695FC
:101180009695891B280F2E8B9F89392F369536957A
:10119000931B87FD8195980F9F8B822F869586954F
:1011A0008695890F888F81E08093D800888D8A8FFB
:1011B000198A188A298D30E0C9018F7090708430A7
:1011C000910509F4AEC18530910564F48230910532
:1011D00091F1833091050CF0B2C08130910509F096
:1011E00064C211C08630910509F4DBC186309105D7
:1011F0000CF4B7C18730910509F4DBC18830910543
:1012000009F053C283C18091D80080FF4EC283E0B1
:10121000898F80E48093D800198A188A8091D00041
:101220009091D100009709F409C122E42093D800DD
:101230000E94D10403C18091D80080FF75C08091C5
:10124000B3018F73823109F06FC08091B201282FF2
:1012500030E0207F3070213531050CF449C0829593
:101260008F7090E00597880F991F880F991F5091F4
:101270008C0040E034C0F901EC57FE4F56A95523CD
:1012800029F440938B0010928C0032C0513011F43D
:101290004F5F25C05230E1F467A96430C9F4409330
:1012A0008B0050938C0030AD20E081AD90E0822B1C
:1012B000932B90938A008093890071E08B35970778
:1012C00010F08AE591E09B8B8A8B9D8B8C8B10C0F4
:1012D0002C573E4FF90127A9222331F0420F242F2A
:1012E00030E0281739073CF240938B0050938C0074
:1012F00083E0898F8091AA0188878091AB018987DB
:101300008091AC018A878091AD018B8781E090E06C
:101310000E94D10482E48093D800198A188A10921E
:10132000D1001092D0008AC080E28093D8000E9441
:101330007004E091DB00F091DC00118E4ECD8091C5
:10134000B30180FF2AC024FD28C0888999890097AD
:1013500009F0ABC18091D0009091D10001960E941C
:10136000D1042091D800822F80618093D800809191
:10137000D0009091D100009719F022612093D800FD
:101380000E94700481E090E0998B888B88E0898FBF
:101390001B8E81E18093B3010FC185FF1CC050916A
:1013A000B80140E08091B90190E0842B952B4091E9
:1013B000D9005091DA00480F591F5093DA0040933A
:1013C000D9004091D0005091D100481B590B509347
:1013D000D1004093D0008091D0009091D10000972F
:1013E00049F024FD07C02091D80022602093D80046
:1013F0000E94D1049091B40180E02091B501820F48
:10140000911D90938A00809389002C893D8928172B
:10141000390710F0009721F430938A002093890057
:101420008091890090918A009B8B8A8B8091D80053
:1014300090E083709070009709F437C11092170301
:10144000109216030E9470048091D80085FF07C097
:101450001092170310921603198E84E19BCF84FF1C
:101460000AC0109217031092160381E090E0998B46
:10147000888B84E08CCF20911603309117032115BF
:101480003105E1F080FF02C0198A188A888999899C
:10149000009781F48A899B898217930720F490939F
:1014A0001703809316038091160390911703998B6D
:1014B000888B04C090931703809316031B8E809132
:1014C000D2009091D3009093DA008093D90080915C
:1014D000160390911703009759F08889998900970E
:1014E00039F088969093D1008093D00088E10BC0AA
:1014F0008091D80081FFD9C088E290E09093D1001C
:101500008093D00080E18093B3015CC08091D800CB
:1015100080FFCBC0198E80E18093D8000E947004B8
:10152000C4C08091D0009091D100009711F00E942A
:10153000D1049091B3018091D80090FF0BC080FF3F
:1015400006C087E0898F1A8E198A188A19C086E02A
:10155000898F16C080FF1EC085E0898F198A188A7E
:10156000A4C08091D0009091D100009711F00E940A
:10157000D1048091B30180FF0DC087E0898F1A8E5E
:1015800081E090E00E94D10480E18093D8000E9425
:1015900070040FC08091D0009091D100009749F461
:1015A00084C08091D80080FF80C087E0898F1A8E28
:1015B0007CC080E1F80181A388E290E09093D100A3
:1015C0008093D00080E58093B201E2E9F1E0888564
:1015D000848F8985858F8A85868F8B85878F8C857B
:1015E000808F8D85818F8E85828F8F85838F86E01A
:1015F00081878C819D81958B848B8E819F81978B38
:10160000868B809180019091810190939F018093BE
:101610009E0180918201909183019093A10180931A
:10162000A001888199819093A3018093A2018A816E
:101630009B819093A5018093A401898D84FF03C0B1
:1016400013A212A204C081E082A38AE583A3C2E9A7
:10165000D1E080E488878091D0009091D1009A8376
:101660008B831FA21EA21DA21CA20E94FB048095B8
:1016700090959DA38CA385E48093920119821F828B
:101680001E8280918D0090918E00019690938E0025
:1016900080938D009C838D831B861A860E94EA04AA
:1016A000809590959B878A8704C01092D1001092F4
:1016B000D0001092D800DF91CF911F910F91FF9031
:1016C000EF900895CF92DF92FF920F931F93CF93E5
:1016D000DF93DC0110929500FF242BE030E046C040
:1016E0008F2D90E0829F6001839FD00C929FD00C41
:1016F0001124A6014A565F4FFA01C081D18120977B
:1017000059F1428153814115510531F10D911C91DF
:1017100011970C171D0701F51296CD91DC911397C7
:10172000C417D507C9F4F0929500F601E656FF4FAD
:10173000262F372FD90126E00D9001922150E1F795
:101740002BE030E0829FF001839FF00D929FF00D1F
:101750001124EA56FF4F76C0829FF001839FF00D5F
:10176000929FF00D1124EA56FF4FF3948F2D853090
:1017700008F4B6CF40E08BE090E016C0242F30E0B4
:10178000289FF001299FF00D389FF00D1124EA5693
:10179000FF4F208131812115310529F422813381C8
:1017A0002115310519F04F5F453040F34093950006
:1017B0004530B1F5F090CD004F2D50E000E020E035
:1017C00030E08BE090E018C0C32FD0E0C89FF0015C
:1017D000C99FF00DD89FF00D1124EA56FF4F1285D6
:1017E000EA01C11BD109E02FF0E0EC17FD071CF462
:1017F0000F2D011B232F3F5F353030F30093CE00B8
:101800002093CF002093950030E08BE090E0289F5C
:10181000F001299FF00D389FF00D1124EA56FF4F7B
:101820008D919D910D90BC91A02DEF01899399937D
:10183000A993B993862F972FDC0186E00D9009922A
:101840008150E1F78091CD008287DF91CF911F9188
:101850000F91FF90DF90CF900895109295008BE04C
:1018600090E012C0242F30E0289FF001299FF00D56
:10187000389FF00D1124EA56FF4F10821182128218
:1018800013824F5F4093950040919500453050F38F
:1018900008958091CD008F5F8093CD0010929500C8
:1018A0002BE030E023C0862F90E0829FF001839FE1
:1018B000F00D929FF00D1124EA56FF4F8281938123
:1018C00040815181842B952B009769F08091CD0048
:1018D00090E04285841B91098837910524F010829D
:1018E0001182128213826F5F609395006091950060
:1018F0006530C8F208958091D0009091D1008A326D
:10190000910528F41092D1001092D0000895109201
:10191000D1001092D000809198019091990121E01E
:101920008030920731F022E08030920709F092C0B7
:1019300075C02091AA013091AB01809180019091F6
:1019400081012817390709F085C02091AC01309139
:10195000AD0180918201909183012817390709F028
:1019600079C080EA91E06AE971E00E94620B80E050
:1019700092E09093990180939801E4EAF1E0DF010D
:101980001A9786E00D9001928150E1F7AAE9B1E043
:10199000EFE7F0E086E001900D928150E1F7AAE8D0
:1019A000B1E0EFE7F0E086E001900D928150E1F7C1
:1019B000E4E8F1E0DF01909686E00D90019281501D
:1019C000E1F78091A0019091A1019093AB018093E8
:1019D000AA018091A2019091A3019093AD018093FF
:1019E000AC0180918001909181019093A10180933D
:1019F000A00180918201909183019093A301809333
:101A0000A20188E096E090939101809390018AE290
:101A100090E09093D1008093D00008952091AA0186
:101A20003091AB0180918001909181012817390795
:101A300089F42091AC013091AD01809182019091A7
:101A400083012817390731F480EA91E06AE971E0EF
:101A50000E94620B08952091A2013091A3014FEFE3
:101A60002F3F340791F48091A4019091A5014FEF8D
:101A70008F3F940751F4A4E8B1E0E2E7F0E086E09C
:101A800001900D928150E1F7CFC08091800190913B
:101A900081018227932740917C0150917D0184230D
:101AA0009523009791F44091A4015091A501809154
:101AB0008201909183018427952760917E01709126
:101AC0007F0186239723009789F080917801909178
:101AD0007901909392008093910080917A01909186
:101AE0007B01909394008093930008C03093920000
:101AF0002093910050939400409393004091910063
:101B0000509192002091930030919400A0E08BE0DE
:101B100090E016C06A2F70E0689FF001699FF00D99
:101B2000789FF00D1124EA56FF4F608171814617AE
:101B3000570729F4628173812617370719F0AF5FC1
:101B4000A53040F3A0939500A53009F065C084E866
:101B500091E06FEF70E046E050E00E942D0EA4EAA5
:101B6000B1E086E0FD0111928A95E9F75A97EFE717
:101B7000F0E086E001900D928150E1F7AAE9B1E032
:101B8000EFE7F0E086E001900D928150E1F780915F
:101B90009100909192009093AB018093AA01809163
:101BA0009300909194009093AD018093AC0180914B
:101BB0008001909181019093A1018093A001809177
:101BC0008201909183019093A3018093A20180E010
:101BD00091E0909399018093980190939301809361
:101BE000920188E090E0909395018093940186E0C3
:101BF0008093960184E08093970188E096E090932B
:101C00009101809390018AEB91E09093DA008093A8
:101C1000D9008AE290E01CC0A4E8B1E0349686E0E6
:101C200001900D928150E1F7AAE8B1E0EFE7F0E012
:101C300086E001900D928150E1F788E090E090936A
:101C40009101809390018091D0009091D1000E96E7
:101C50009093D1008093D0000895DC0101C06D9372
:0C1C600041505040E0F70895F894FFCF89
:101C6C00020000000001C0A80108C0A80101FFFF8C
:081C7C00FF00FFFFFFFFFFFF67
:00000001FF
